:020000040800F2
:1000000010090020CD01000801240008491C000847
:1000100089230008D3040008B92900080000000063
:10002000000000000000000000000000F7250008AC
:10003000D504000800000000F5250008F925000897
:10004000E7010008E7010008E7010008E7010008F0
:10005000E7010008E7010008E7010008E7010008E0
:10006000E7010008E7010008E7010008E7010008D0
:10007000E7010008E7010008E7010008E7010008C0
:10008000E7010008E7010008E7010008E7010008B0
:10009000E7010008E7010008E7010008E7010008A0
:1000A000E7010008E7010008E7010008E701000890
:1000B000E7010008E7010008E7010008E701000880
:1000C000E7010008E7010008E7010008E701000870
:1000D000E7010008E7010008E7010008E701000860
:1000E000E7010008E7010008E7010008E701000850
:1000F000E7010008E7010008E7010008E701000840
:10010000E7010008E70100085D260008E701000894
:10011000E7010008E7010008E7010008E70100081F
:10012000E7010008E7010008E7010008E70100080F
:1001300000F002F800F03AF80AA090E8000C8244BF
:100140008344AAF10107DA4501D100F02FF8AFF29C
:10015000090EBAE80F0013F0010F18BFFB1A43F0A5
:10016000010318477479000094790000103A24BF05
:1001700078C878C1FAD8520724BF30C830C144BF0C
:1001800004680C607047000000230024002500264E
:10019000103A28BF78C1FBD8520728BF30C148BFEA
:1001A0000B6070471FB51FBD10B510BD00F05CF9A6
:1001B0001146FFF7F7FF03F089FF00F07AF903B467
:1001C000FFF7F2FF03BC00F07DF90000094880470B
:1001D00009480047FEE7FEE7FEE7FEE7FEE7FEE729
:1001E000FEE7FEE7FEE7FEE704480549054A064B41
:1001F000704700005B260008310100081003002052
:1002000010090020100500201005002010B54C102A
:1002100084EA530404D54042C1F1000138BF491EAD
:100220001B4204D55242C3F1000338BF5B1E00F0ED
:100230006FF814F0804F04D04042C1F1000138BF84
:10024000491E14F0004F04D05242C3F1000338BFDE
:100250005B1E10BD40EA010310B59B070FD1042AB5
:100260000DD310C808C9121F9C42F8D020BA19BA81
:10027000884201D9012010BD4FF0FF3010BD1AB1E6
:10028000D30703D0521C07E0002010BD10F8013B3B
:1002900011F8014B1B1B07D110F8013B11F8014B62
:1002A0001B1B01D1921EF1D1184610BD02F0FF03B5
:1002B00043EA032242EA024200F0AEB84FF00002E5
:1002C00000B5134694469646203922BFA0E80C504C
:1002D000A0E80C50B1F12001BFF4F7AF090728BF27
:1002E000A0E80C5048BF0CC05DF804EB890028BFA3
:1002F00040F8042B08BF704748BF20F8022B11F0CC
:10030000804F18BF00F8012B704770477047704747
:1003100053EA020C00F069802DE9F04B4FF0000623
:10032000002B1FBFB3FA83F503FA05F424FA05F690
:100330005E4012BF1643B2FA82F502FA05F4C5F127
:1003400020051EBF22FA05FC44EA0C04203556EABB
:10035000044C4FEA144418BF641C4FF000084FF0DF
:100360000009904271EB030C39D3002919BFB1FA8F
:1003700081F701FA07F6B0FA80F700FA07F6C7F13D
:1003800020071EBF20FA07FC46EA0C062037B6FB02
:10039000F4FCA7EB0507103F07F01F0BCBF120067D
:1003A0000CFA0BFB2CFA06F644BFB3460026202FAE
:1003B000A4BF5E464FF0000B5BEA060C08BF4FF08F
:1003C000010B19EB0B09ABFB027C48EB0608C01BC9
:1003D00006FB02CC0BFB03CC71EB0C01C1E70B4617
:1003E000024641464846BDE8F08B13B54FF0000089
:1003F0004FF00001AFF30080BDE81C40704710B51E
:1004000000F02AF8006810BD10B5044600F024F88A
:10041000046010BD4FF000020429C0F0128010F0FB
:10042000030C3FF44DAFCCF1040CBCF1020F18BF2C
:1004300000F8012BA8BF20F8022BA1EB0C01FFF75D
:100440003FBF5FEAC17C24BF00F8012B00F8012BFD
:1004500048BF00F8012B704700487047B0020020E9
:1004600000487047B00200207546FFF7F9FFAE461E
:1004700005006946534620F00700854618B020B5B0
:10048000FFF7B2FEBDE820404FF000064FF0000736
:100490004FF000084FF0000B21F00701AC46ACE82C
:1004A000C009ACE8C009ACE8C009ACE8C0098D4699
:1004B000704710B50446AFF300802046BDE81040F9
:1004C000FFF77DBE01491820ABBEFEE72600020003
:1004D0007047FEE7704772B6FEE7000070B504464D
:1004E00000F010F90546601C02D00448007804446E
:1004F00000F008F9401BA042FAD370BD08000020AC
:100500002DE9F84FDFF8C891002409F1040A0AF137
:10051000040B23460F270BF1040ED1E00125A54063
:1005200006EA0502AA4276D1DFF8A8C14E68A6EB1A
:100530000C0866452BD00DDC032E34D005DC36B319
:10054000012E19D0022E2FD11BE0112E16D0122E03
:100550002AD119E0B8F5881F19D006DCB8F5803F1C
:1005600015D0B8F5801F1FD111E0B8F5001F0ED0CF
:10057000B8F5041F18D10AE0CB6815E0CB681B1D45
:1005800012E0CB6808330FE0CB680C330CE08B68CB
:100590002BB1012B4FF0080303D0456104E0042385
:1005A00002E0056100E00023FF2A01D8064601E0D1
:1005B00000F104064FEA840501D9A5F12005D6F81B
:1005C000008007FA05FC28EA0C0803FA05F548EA5A
:1005D0000508C6F800804D68ED0070D53E4DAE6947
:1005E00046F00106AE61AD6924F0030605F0010591
:1005F00000953A4D06EB050CDCF80850A607360FBF
:1006000007FA06F825EA0805DFF8D480404503D14B
:100610004FF0000825E052E0DFF8C880404502D1E5
:100620004FF001081DE0DFF8C080404502D14FF0D7
:10063000020816E0DFF8B480404502D14FF003080D
:100640000FE0DFF8AC80404502D14FF0040808E02D
:10065000DFF8A080404502D14FF0050801E04FF0DF
:10066000060808FA06F848EA0508CCF808804D683C
:10067000D9F80060ED034D4601D5164300E09643DE
:100680002E604D68DAF80060AD03554601D516437B
:1006900000E096432E604D68DBF80060ED025D4699
:1006A00001D5164300E096432E604D68DEF80060E9
:1006B000AD02754601D5164300E096432E60641CDA
:1006C0000A681646E2407FF429AFBDE8F88F0000C3
:1006D0000004014000001110001002400000014021
:1006E00000080140000C01400010014000140140CE
:1006F00000180140001C01400AB101617047090463
:10070000FBE70000014880687047000008000020F7
:1007100070B5040025D094F83D00002520B984F878
:100720003C50204600F078FA242084F83D002068F0
:10073000016821F0010101602068016841F4004175
:1007400001602068016821F40041016000F0DEFBD7
:100750004D4A6168914201D84C4900E04C498842B9
:1007600001D2012070BD4B492368B0FBF1F15E68F6
:1007700026F03F060E435E606368934206D94FF44D
:10078000967359434FF47A73B1FBF3F12368491C14
:100790001E6A26F03F06314319626168914210D803
:1007A0004900401EB0FBF1F2521CC2F30B02042AB6
:1007B00001D2042022E0B0FBF1F0401CC0F30B009A
:1007C0001CE0A268F2B301EBC10303EB0116431E68
:1007D000B3FBF6F35B1C43F480431B0549D092B393
:1007E00001EBC10202EB0111401EB0FBF1F0401C15
:1007F000C0F30B0040F4804040F400402168CA6917
:100800004CF6FF739A431043C861D4E907100143C3
:100810002068026822F0C00211430160D4E903019C
:1008200001432068826848F2FF339A431143816094
:10083000D4E9050108432168CA6822F0FF02104389
:10084000C86001E00EE016E02068016841F0010197
:1008500001602564202084F83D00256384F83E5023
:10086000002070BD01EB4106431EB3FBF6F35B1C99
:10087000B3E70120C2E701EB4101401EB0FBF1F0FC
:10088000401CC0F30B00B7E7A086010080841E0067
:1008900000093D0040420F002DE9FF4F83B00025C5
:1008A000DDE910799A4693460446DDF848800095C4
:1008B000FFF728FF064694F83D0020287CD1192335
:1008C000012285492046009601F0CEFA0028F5D194
:1008D00094F83C0001286FD0012084F83C00206887
:1008E0000168C90703D1016841F001010160206876
:1008F000016821F400610160222084F83D0040205D
:1009000084F83E0025646762A4F82A90608D2085F3
:100910007248E062CDE9008653465A462046049963
:1009200001F0AAF900287DD1208DDFF8B4912027AD
:1009300068B1012814D00228206801681ED041F453
:10094000806101602068416980690090B6E020689C
:10095000416981690091016841F400710160ADE075
:100960002068016821F48061016072B620684169E5
:1009700081690091016841F400710AE041F400616D
:10098000016072B62068416981690091016821F4B3
:100990008061016062B691E0032868D801280CD01C
:1009A000022843464FF000024946204600960FD0E9
:1009B00001F05AFAB0BB10E08BE0324641462046C7
:1009C00001F0D1FA70BB20680069616A08706CE0C0
:1009D00001F04AFA30BB72B634E02068016821F4B5
:1009E0008061016072B620680069616A0870606A9F
:1009F000401C6062208D401E2085608D401E6085F9
:100A0000384846F2A8110068B0FBF1F0C0EBC00016
:100A100000EB80000090401E009008D020684069E4
:100A2000C04300E029E040070CD50098F3E744F804
:100A3000305F6773A573206940F02000206162B6C3
:100A400025731AE02068016841F400710160206894
:100A50000069616A0870606A401C6062218D491EED
:100A60002185618D491E618562B621681BE0324691
:100A70004146204601F077FA18B1012007B0BDE8E1
:100A8000F08F20680069616A0870606A401C6062CB
:100A9000218D491E2185618D491E618521684A6924
:100AA000D24352070AD409690170606A401C60622F
:100AB000208D401E2085608D401E6085208D002881
:100AC0007FF46AAF84F83D7084F83E5084F83C505F
:100AD000D4E70220D2E70000020010000000FFFF70
:100AE00004000100140000202DE9FF4F83B09A4656
:100AF000DDE9119793460446DDF84080FFF702FEDA
:100B0000054694F83D0020287FD119230122404951
:100B10002046009501F0A8F9002876D194F83C0011
:100B2000012872D0012084F83C0020680168C907C0
:100B300003D1016841F0010101602068016821F4DE
:100B400000610160212084F83D00402084F83E00CF
:100B500000262664C4F82480A4F82A90608D20859D
:100B60002C48E062CDE9007553465A462046049968
:100B700001F000F970B930E02A463946204601F00C
:100B800025FA58B1206C042804D12068016841F48A
:100B900000710160012007B0BDE8F08F606A216834
:100BA00000780861606A401C6062218D491E89B22C
:100BB0002185628D521E628522685369DB435B0783
:100BC0000BD469B100781061606A401C6062208DAE
:100BD000401E2085608D401E6085208D0028CBD171
:100BE0002A463946204601F019F90028CAD154F89E
:100BF0003D0B016841F400710160202004F81E09DA
:100C0000E67766770020C6E7FFE70220C3E700002B
:100C1000020010000000FFFF30B585B000210091F8
:100C20000191029103911E4D03681E4C1221032273
:100C30001D48AB4216D1A36943F00803A361A36921
:100C4000039203F008030493C023CDE90031694601
:100C5000FFF756FCE06940F40010E061E06900F441
:100C6000001019E0114DAB4217D1A36943F00803FE
:100C7000A361A369039203F0080304934FF4406354
:100C8000CDE900316946FFF73BFCE06940F48000A4
:100C9000E061E06900F48000049005B030BD000020
:100CA0000054004000100240000C01400058004079
:100CB0000248816802781144816070470800002072
:100CC000074810B5016841F010010160032000F0F1
:100CD00075F80F2000F006F800F024F8002010BD91
:100CE0000020024070B50D4D04464FF47A7128780B
:100CF000B1FBF0F00A490968B1FBF0F000F0ECFA42
:100D000048B9102C07D200222146501E00F036F8B8
:100D100000206C6070BD012070BD00000800002044
:100D2000140000200C4808B5816941F0010181617F
:100D3000816901F001010091C16941F08051C161F7
:100D4000C06900F0805000900448416821F0E061E3
:100D500041F00071416008BD0010024000000140F8
:100D6000002809DB00F01F020121914040098000AA
:100D700000F1E020C0F8001170470000F0B40E4B05
:100D80001B680C46C3F30223C3F10705042D00D9E9
:100D90000425191D072901D2002300E0DB1E0126CE
:100DA00006FA05F1491E214099409E40761E1640E4
:100DB0003143F0BC01F03ABE0CED00E0064900F012
:100DC000070208684FF6FF03184040EA0220034A72
:100DD00010430860704700000CED00E00000FA05C9
:100DE0002DE9F0470F46050061D0434E306800F012
:100DF0000700B84209D2306820F00700384330605D
:100E0000306800F00700B84251D128683B4C810798
:100E100012D5400703D5606840F4E0606060287830
:100E2000000703D5606840F4605060606068A9689E
:100E300020F0F000084360602878C00728D0686878
:100E4000012810D02168022810D0890700292EDA45
:100E5000616821F0030101436160FFF753FC8046A4
:100E600041F288390DE021688903EFE78901EDE758
:100E7000FFF748FCA0EB0801494502D90320BDE873
:100E8000F0876068696800F00C00B0EB810FEFD16B
:100E9000306800F00700B8420BD9306820F0070036
:100EA00038433060306800F00700B84201D00120BC
:100EB000E5E72878400705D56068E96820F4E06038
:100EC000084360602878000706D56068296920F427
:100ED000605040EAC100606000F038F86168084A7C
:100EE000C1F30311515CC840064908600648006818
:100EF000FFF7F8FE0020C2E7002002400010024089
:100F00006E650008140000200C000020044805490C
:100F100000684968044AC1F30221515CC840704727
:100F200014000020001002407E65000804480549B6
:100F300000684968044AC1F3C221515CC840704747
:100F400014000020001002407E65000812A185B048
:100F50000FC98DE80F0014A0144A0068049051686E
:100F6000134801F00C03042B10D0082B0ED1C1F351
:100F70008343C9031DF803000AD5516804AAC1F3CD
:100F80004041515C0A4A5043B0FBF1F005B0704754
:100F900008494843FAE70000020304050607080968
:100FA0000A0B0C0D0E0F1010010200000010024081
:100FB00000127A0000093D002DE9F84F040070D0BE
:100FC0002078C04DC00749D06868C0F3810001286F
:100FD00007D06868C0F38100022809D16868C0039F
:100FE00006D52868800339D560680028E7D035E049
:100FF0006068B0F5803F0BD010B1B0F5A02F11D0D4
:10100000286820F480302860286820F4802002E0DE
:10101000286840F480302860606890B1FFF772FB68
:1010200006460AE0286840F480202860F0E700BF08
:10103000FFF768FB801B642873D828688003F7D506
:101040000CE0FFF75FFB064605E000BFFFF75AFB29
:10105000801B6428F0D828688003F7D420789A4E43
:1010600080074FF001094FF0000839D5686810F08B
:101070000C0F07D06868C0F38100022809D16868A6
:10108000C00306D42868800714D52069012808D138
:1010900010E02069B0B1C6F80090FFF733FB0746B7
:1010A00005E00AE1FFF72EFBC01B0228C4D8286820
:1010B0008007F7D52868616920F0F80040EAC10090
:1010C00028600DE0C6F80080FFF71CFB074604E02F
:1010D000FFF718FBC01B022823D828688007F7D425
:1010E000207800072CD57948A169D9B1C0F80090C3
:1010F000FFF708FB074604E0FFF704FBC01B0228CC
:101100000FD8686A8007F7D571484FF4FA51006824
:10111000B0FBF1F0009000BF0098411E0091FAD2A0
:101120000EE080E0C0F80080FFF7ECFA074604E02C
:10113000FFF7E8FAC01B022875D8686A8007F7D461
:101140002078400760D5E8690027C00008D4E86926
:1011500040F08050E861E869012700F0805000907D
:101160005C480168C90513D40168834641F4807165
:101170000160FFF7C7FA824606E000BFFFF7C2FA38
:10118000A0EB0A0064284ED8DBF80000C005F5D5B6
:10119000E06801280AD008B1052813D0286A20F099
:1011A00001002862286A20F0040002E0286A40F06A
:1011B00001002862E06841F2883B98B1FFF7A2FA8B
:1011C00082460BE0286A40F004002862EEE700BF88
:1011D000FFF798FAA0EB0A0159455AD8286A800708
:1011E000F6D50CE0FFF78EFA824605E0FFF78AFAA3
:1011F000A0EB0A0159454CD8286A8007F6D41FB1E4
:10120000E86920F08050E861E06988B36968C1F35B
:101210008101022944D00228C6F8608004D0FFF77B
:1012200071FA044638E034E0FFF76CFA074604E050
:10123000FFF768FAC01B02282BD828688001F7D472
:10124000206AB0F5803F05D16868A16820F40030BD
:1012500008436860D4E908010843696821F47411FF
:1012600008436860C6F86090FFF74CFA044606E051
:1012700025E000BFFFF746FA001B022809D82868BE
:101280008001F7D51BE000BFFFF73CFA001B0228E6
:1012900002D90320BDE8F88F28688001F4D40EE05D
:1012A0000128F7D06868226A00F48031914204D1A5
:1012B000616A00F47010884201D00120EAE7002042
:1012C000E8E7000000100240000042428004424271
:1012D000140000200070004010B5401EB0F1807F67
:1012E00001D3012010BD4FF0E02460610F21601791
:1012F00001F09CFB0020A06107202061002010BDB0
:101300007047704770B590F83C20012A2CD001241A
:1013100080F83C40022280F83D2003685A689D68AE
:1013200022F070060A6832435A60104B02689A42F3
:101330000ED00F4B9A420BD0B2F1804F08D00D4B1C
:101340009A4205D00C4B9A4202D00C4B9A4204D1DF
:10135000496825F080031943916080F83D400021E1
:1013600080F83C10084670BD022070BD002C014082
:10137000003401400004004000080040000C004020
:1013800010B5040003D094F83D0010B107E001202F
:1013900010BD002084F83C00204600F01FF8022019
:1013A00084F83D00211D206801F05EF9012084F8D9
:1013B000460084F83E0084F83F0084F8400084F83A
:1013C000410084F8420084F8430084F8440084F823
:1013D000450084F83D00002010BD000008B50068FD
:1013E0000B49884212D10B48C16941F00801C16123
:1013F000C069002200F00800009001213220FFF7B0
:10140000BDFCBDE808403220FFF7AABC08BD0000C3
:10141000000C00400010024090F83D10012901D05E
:1014200001207047022180F83D100168CA6842F02F
:101430000102CA6000680E4988420ED00D498842F8
:101440000BD0B0F1804F08D00B49884205D00B4932
:10145000884202D00A49884204D1816801F007011C
:10146000062903D0016841F00101016000207047A6
:10147000002C0140003401400004004000080040FE
:10148000000C004070B5044690F83C00012817D0CD
:10149000012584F83C50022084F83D0020688268D1
:1014A00022F0770222F47F4282600868502830D010
:1014B0000DDC20284DD005DC98B310283BD148E046
:1014C000022070BD302844D0402834D139E0602853
:1014D00028D0702806D0B0F5805F2CD0B0F5005F22
:1014E00029D10AE0CB68D1E90121206801F00FF988
:1014F0002068816841F0770109E0CB68D1E90121DA
:10150000206801F004F92068816841F4804181601D
:1015100011E0CA684968206801F0CEF950212068BE
:1015200007E016E0CA684968206801F0D6F9602132
:10153000206801F0F6F884F83D50002084F83C0063
:1015400070BDCA684968206801F0B6F9402120687A
:10155000EFE7226801461046EBE72DE9F0410D4622
:10156000040003D094F83D0018B108E00120BDE864
:10157000F081002084F83C00204600F041F8022071
:1015800084F83D002068816844F20702914381603D
:10159000211D206801F068F8226890689169166A38
:1015A0002B68AF69034340F20330814341EA0721CE
:1015B000A868EF6908434FF6FC418843E96840EAB0
:1015C0000720014328692F6A000140EA07300843D9
:1015D00069686D6926F0220646EA0515294393607D
:1015E0002268906154F8460B0162012004F81F093B
:1015F000E0752076E0762077A0750020B7E7000040
:1016000000B585B00021009101910291039102681B
:1016100018491948B2F1804F19D0184B9A4214D189
:10162000CA6942F00202CA61CA6902F00202049267
:101630008A6942F004028A61896901F00401049117
:10164000C02100916946FEF75BFF05B000BDCA6985
:1016500042F00102CA61CA6902F0010204928A6979
:1016600042F004028A61896901F0040104910321B6
:10167000E7E70000001002400008014000040040BD
:1016800070B590F83E60044690F83F5090F84230B4
:1016900090F84320022021B104290ED0012E1BD145
:1016A00014E0012E18D1012B16D184F83E0084F8E5
:1016B000420001220021206820E0012D0CD1012AE6
:1016C0000AD184F83F0084F8430014E0012D03D1CF
:1016D000012B01D1012A01D0012070BD84F83E0008
:1016E00084F83F0084F8420084F84300012200217E
:1016F000206800F0FFFF01220421206800F0FAFFBB
:101700002068016841F001010160002070BD704750
:1017100070B50446006801694FF00005C9438907A8
:1017200015D4C168C943890711D4E91E016101209C
:101730002077206880698007204602D0FFF7E7FF06
:1017400004E000F0BFF8204600F062F92577206839
:101750000169C943490717D4C168C943490713D46C
:101760006FF004010161022020772068806910F485
:10177000407F204602D0FFF7CAFF04E000F0A2F845
:10178000204600F045F9257720680169C94309071B
:1017900016D4C168C943090712D46FF0080101616A
:1017A000042020772068C0698007204602D0FFF718
:1017B000AEFF04E000F086F8204600F029F9257716
:1017C00020680169C943C90617D4C168C943C9065D
:1017D00013D46FF010010161082020772068C069E0
:1017E00010F4407F204602D0FFF791FF04E000F0A4
:1017F00069F8204600F00CF9257720680169C94393
:10180000C90708D1C168C943C90704D1891E01614C
:10181000204600F059F920680169C943090609D436
:10182000C168C943090605D46FF0800101612046F3
:10183000FFF766FD20680169C943490609D4C168FC
:10184000C943490605D46FF040010161204600F00C
:1018500091F920680169C94389060BD4C168C9435D
:10186000890607D46FF0200101612046BDE8704071
:10187000FFF747BD70BD000000B585B000210091A5
:1018800001910291039100680B49884212D10B48E3
:10189000816941F0080181618069694600F00800B2
:1018A00004904FF44070009002200190039004488F
:1018B000FEF726FE05B000BD000800400010024003
:1018C000000C0140704770B5044690F83C000D468E
:1018D00001280AD0012084F83C0042B1042A18D023
:1018E000082A2AD00C2A4DD139E0022070BD206888
:1018F00000F020FF2068816941F0080181612068C3
:10190000816921F004018161206881692A6911439C
:1019100011E0206800F03EFF2068816941F4006119
:1019200081612068816921F4806181612068816919
:101930002A6941EA0221816124E0206800F060FF09
:101940002068C16941F00801C1612068C16921F0C6
:101950000401C1612068C1692A69114311E020684E
:1019600000F082FF2068C16941F40061C161206814
:10197000C16921F48061C1612068C1692A6941EAB5
:101980000221C161002084F83C0070BD10B5040044
:1019900003D094F83D0010B107E0012010BD0020F5
:1019A00084F83C00204600F01FF8022084F83D0037
:1019B000211D206800F058FE012084F8460084F8BC
:1019C0003E0084F83F0084F8400084F8410084F829
:1019D000420084F8430084F8440084F8450084F809
:1019E0003D00002010BD000008B50068064988428F
:1019F00008D10648C16941F00401C161C06900F025
:101A00000400009008BD00000008004000100240E3
:101A10007047000010B50446022249B104290ED0D7
:101A2000082913D094F84100012816D0012010BDD8
:101A300094F83E000128F9D184F83E200FE094F894
:101A40003F000128F2D184F83F2008E094F84000DC
:101A50000128EBD184F8402001E084F841200122E4
:101A6000206800F047FE13492068134A884201D0DD
:101A7000904203D1436C43F400434364206888429E
:101A80000DD090420BD0B0F1804F08D00B49884266
:101A900005D00B49884202D00A49884204D18168A6
:101AA00001F00701062903D0016841F0010101603E
:101AB000002010BD002C0140003401400004004013
:101AC00000080040000C00402DE9F0472249884200
:101AD00040D122480668706A04F056FB204C00256D
:101AE000206075621F4E4FF08F4AB04201DC2068C3
:101AF00003E0514604F028FC206004F09BF9DFF875
:101B000068800022434603F04BFDDFF8609000221E
:101B10004B4603F0B5FE03F061FC206014480768F3
:101B2000786A04F031FB60607D62B04201DC60687D
:101B300003E0514604F008FC606004F07BF90022E9
:101B4000434603F02DFD00224B4603F099FE03F0BF
:101B500045FC6060BDE8F087EC0100205C010020DE
:101B60000000002000D856470000244000005940E3
:101B700014010020704770B5040004D094F83D00B3
:101B8000002510B106E0012070BD84F83C502046CD
:101B900000F022F8242084F83D002068C16821F478
:101BA0000051C160204600F0ABFE2068016921F4BD
:101BB000904101612068416921F02A01416120685A
:101BC000C16841F40051C1602564202084F83D00C3
:101BD00084F83E00002070BD30B585B0002400942C
:101BE00001940294039400681449884224D1144853
:101BF000816941F480418161816901F480410491EE
:101C0000816941F00401816180690E4D00F004009A
:101C100004904FF400700090022001900320039084
:101C200069462846FEF76CFC2815CDE90004694694
:101C300028460294FEF764FC05B030BD0038014030
:101C40000010024000080140FEE701684A69D243E3
:101C500052050FD46FF480624A61002140F8301FB2
:101C6000202242738173026942F00402026101730F
:101C700001207047002070472DE9F84F04460068A6
:101C800089460B9D01689846174641F480610160C2
:101C90002068016841F48071016000954FF0011BDC
:101CA0000022594620460A9B00F0DEF84FF4007AE5
:101CB00040B120680068C00501D5C4F840A00320E9
:101CC000BDE8F88F216809F0FE0008612B4628491D
:101CD00020460A9A00F0FCF8F0BB20684169806950
:101CE00000902A4620460A9900F070F940B1206C15
:101CF00004283AD12068016841F40071016034E0A1
:101D0000FEB2B8F1010F09D02168380A08612A46ED
:101D100020460A9900F05AF90028E8D120680661A7
:101D20002A4620460A9900F051F90028DFD12068A0
:101D3000016841F4807101600095002259462046F7
:101D40000A9B00F091F80028B3D1216809F0FF0048
:101D500040F00100086100E007E02B4604492046FE
:101D60000A9A00F0B5F80028AAD00120A8E70000E0
:101D7000020001002DE9F843044600680D46DDE944
:101D8000089701689846164641F4807101604B46F9
:101D900000224FF001112046009700F065F848B18D
:101DA00020680068C00502D54FF40070206403204D
:101DB000BDE8F883216805F0FE0008613B464A460D
:101DC0001549204600F084F888B920684169806987
:101DD00000903A464946204600F0F8F848B1206C99
:101DE000042804D12068016841F4007101600120D9
:101DF000DEE7F5B2B8F1010F09D02168300A0861B9
:101E00003A464946204600F0E1F80028E7D120682C
:101E100005610020CCE700000200010070B5164605
:101E20000D4604460DE02046FFF70FFF08B10120E4
:101E300070BD681C05D0FEF765FC801BA84207D862
:101E400035B120684069C0434007ECD4002070BD24
:101E5000002044F8300F20216173A073216941F004
:101E6000200121612073E2E72DE9F0471E469046EC
:101E70000D460446C1F30747DDF8209008E0701CCA
:101E800006D0FEF73FFCA0EB0900B0420FD876B1B8
:101E90002068012F18D0806925EA00000004000C9A
:101EA00014D000214145EAD00020BDE8F087002091
:101EB00044F8300F20216173A073216941F02001A3
:101EC000216120730120F0E74069E5E70121E9E79E
:101ED0002DE9F0479A4691460E46044600254FF0FC
:101EE0002008C1F3074725E020684069C04340054A
:101EF00014D42068016841F40071016021686FF416
:101F000080604861256384F83D8084F83E50206CF1
:101F100040F00400206484F83C501FE0B9F1FF3F1A
:101F200008D0FEF7EFFBA0EB0A0149450CD8B9F148
:101F3000000F09D02068012F13D0806926EA000025
:101F40000004000C0BD0CFE744F8305F84F80D801C
:101F5000A573206940F02000206125730120BDE8B1
:101F6000F0874069EAE72DE9F041002590460E46EA
:101F70000446202717E04069C043C0060CD454F83B
:101F8000301B6FF01000486144F810596777A5774F
:101F9000206A2062257717E0FEF7B4FBA0EB08006B
:101FA000B04208D83EB120684169C9434906E2D42D
:101FB0000020BDE8F08144F8305F6773A5732069A5
:101FC00040F02000206125730120F2E770B516462D
:101FD0000D4604460DE02046FFF737FE08B101200C
:101FE00070BD681C05D0FEF78DFB801BA84207D88A
:101FF00035B120684069C0430006ECD4002070BDB4
:10200000002044F8300F20216173A073216941F052
:10201000200121612073E2E73EB540F6FF74CDE96F
:1020200000320A460146029401230248FEF734FCBE
:1020300000203EBDC00000203EB540F6FF74CDE953
:1020400000320A460146029401230248FEF74CFD85
:1020500000203EBDC0000020F0B585B00024284817
:102060000094019402940394816941F0100181610C
:10207000816901F010010491816941F020018161C1
:10208000816901F020010491816941F004018161BD
:10209000816901F004010491816941F008018161C5
:1020A0008069184F00F0080004900022042138468F
:1020B000FEF722FB42F20200CDE900046946124815
:1020C0000294FEF71DFA042001250226CDE9000541
:1020D000CDE9024669463846FEF712FA2802CDE9F4
:1020E0000005CDE9024669460848FEF709FA4FF4B3
:1020F0007040009069460648FEF702FA05B0F0BD50
:10210000001002400014014000100140000801408E
:10211000000C01400D4810B50B4901600C494160AD
:1021200000214FF480428160C0E903124161816166
:10213000C1610162FEF7ECFA002803D0BDE810404F
:10214000FEF7C9B910BD0000005400406C0000202B
:10215000A08601000D4810B50B4901600C49416093
:1021600000214FF480428160C0E903124161816126
:10217000C1610162FEF7CCFA002803D0BDE810402F
:10218000FEF7A9B910BD000000580040C0000020B3
:10219000801A060010B58CB024216846FEF78EF830
:1021A0000024154809944FF080410A94C0E90014B6
:1021B0004FF6FF71C0E90241046184610320CDE95B
:1021C00000040120CDE902040494CDE90540079400
:1021D000694609480894FFF7C0F908B1FEF77BF992
:1021E000099409A904480A94FFF78CF8002801D043
:1021F000FEF771F90CB010BD1401002010B58CB0C1
:1022000024216846FEF75AF8002416480994144918
:102210000A94C0E900144FF6FF71C0E9024104615D
:1022200084610320CDE900040120CDE90204049477
:10223000CDE90540079469460A480894FFF78DF9EF
:1022400008B1FEF748F9099409A906480A94FFF76E
:1022500059F8002801D0FEF73EF90CB010BD00007F
:10226000000400405C01002010B58AB000240794EF
:102270001C2168460894FEF721F81A481849C0E95D
:10228000001441F61F41C0E9024104618461FFF777
:102290007DFB08B1FEF71FF9079407A911480894C0
:1022A000FFF730F808B1FEF716F96020CDE9000419
:1022B0000294082269460B480494FFF704FB08B116
:1022C000FEF709F90C2269460648FFF7FCFA08B147
:1022D000FEF701F90348FFF7CFFA0AB010BD00007E
:1022E00000080040A401002010B586B00024174863
:1022F000009401940294039404941349059401609A
:1023000041F61F41C0E901143121C0E903148021C5
:102310008161FFF735F808B1FEF7DDF84FF4805022
:10232000009069460948FFF7ADF808B1FEF7D3F809
:10233000049404A905480594FEF7E4FF002801D0A1
:10234000FEF7C9F806B010BD000C0040EC010020FB
:102350000C4810B50A4901604FF4E1314160002199
:1023600081600C22C160C0E904128161C161FFF784
:1023700002FC002803D0BDE81040FEF7ACB810BD49
:102380000038014034020020FEE7000070B502462C
:10239000084602F01DFDB0F5E15F02DB41F61F408B
:1023A00003E0084602F014FD80B2134C012A08D065
:1023B000022A20D1114A10601014450000290EDCB9
:1023C00006E00E4A121D106090144500002906DD3B
:1023D000014601222046FEF78FF9002205E0014662
:1023E00000222046FEF788F9012229462046BDE852
:1023F0007040FEF781B970BD000C01403C08004000
:10240000FEE70020AFF3008070B506465FF00004E1
:1024100004F1B000C0B200F0D1FA002000F0CEFA12
:10242000102000F0CBFA0025304600F0D9FA6D1CE0
:10243000EDB2802DF8D3641CE4B2082CE8D370BD53
:1024400010B56420FEF74AF8AE2000F0B7FA20205D
:1024500000F0B4FA102000F0B1FAB02000F0AEFAAB
:10246000C82000F0ABFA002000F0A8FA102000F01D
:10247000A5FA402000F0A2FA812000F09FFAFF2088
:1024800000F09CFAA12000F099FAA62000F096FA3C
:10249000A82000F093FA3F2000F090FAA42000F06A
:1024A0008DFAD32000F08AFA002000F087FAD520B8
:1024B00000F084FAF02000F081FAD92000F07EFAD2
:1024C000222000F07BFADA2000F078FA122000F0E7
:1024D00075FADB2000F072FA202000F06FFA8D20F0
:1024E00000F06CFA142000F069FABDE81040AF204B
:1024F00000F064BA10B50446B031C8B200F05EFA1C
:10250000102040EA141000F059FA04F00F00BDE862
:10251000104040F0010000F051BA00002DE9F047F2
:10252000002591468A460446012B22D0DFF8BC8064
:10253000022B24D155E02038C7B27E2C04D90AF1F1
:102540000100002400F0FF0A51462046FFF7D2FFA9
:1025500007EB4700002608EB4007B85D00F040FAA3
:10256000761CF6B2062EF8D3A41D6D1CE4B2EDB2B3
:1025700001E0DFF87C8019F805000028DBD1BDE818
:10258000F0872038C7B2782C04D90AF10100002462
:1025900000F0FF0A51462046FFF7ACFF5FF000064F
:1025A00006EB071118F8010000F01AFA761CF6B2D3
:1025B000082EF5D30AF10100C1B22046FFF79AFFB9
:1025C0005FF0000606EB071101EB0800007A00F04F
:1025D00007FA761CF6B2082EF4D308346D1CE4B268
:1025E000EDB219F805000028CBD1C8E7AE670008A6
:1025F0008665000870477047FEF75ABB30B58FB04C
:1026000028216846FDF75AFE14210AA8FDF756FE58
:1026100001210804CDE90010002402940225049150
:10262000CDE907504FF4E01009906846FEF7C4FC6E
:1026300008B172B6FEE70F20CDE90A054FF48060BD
:10264000CDE90C4002210AA80E94FEF7C9FB002830
:1026500001D072B6FEE70FB030BD70470148FFF7FA
:1026600057B80000EC010020F0B502681C4B1D4D6E
:102670001D4E1E4F1E4C4FF0804C984209D0A04278
:1026800007D0604505D0A84203D0B04201D0B8427F
:1026900004D122F0700E4A6842EA0E02984209D034
:1026A000A04207D0604505D0A84203D0B04201D077
:1026B000B84203D122F44075CA682A434D6922F01A
:1026C00080022A4302608A68C2620A688262984273
:1026D00001D0A04201D10969016301214161F0BD2E
:1026E000002C01400004004000080040000C0040A5
:1026F0000034014010B501F01F030121046A994024
:102700008C430462016A9A401143016210BD10B506
:10271000846842EA032224F47F440A43224382600D
:1027200010BD826822F070020A4342F00701816006
:1027300070470000F0B5026A22F001020262036AEB
:1027400042688469124E24F073050C682C4323F010
:1027500002058B682B430D4DA84201D0B04205D134
:1027600023F00807CB683B4323F00403A84201D0C1
:10277000B04205D14D6922F4407215438A692A435B
:1027800042608461496841630362F0BD002C0140EE
:1027900000340140F0B5026A22F010020262026ABF
:1027A000436884690D6824F4E64444EA05248D688E
:1027B00022F0200242EA05120F4D104EA84201D02D
:1027C000B04206D1CF6822F0800242EA071222F01E
:1027D0004002A84201D0B04207D14D6923F44063C2
:1027E00043EA85038D6943EA850343608461496850
:1027F00081630262F0BD0000002C01400034014002
:10280000F0B5026A22F480720262026A4368C46907
:1028100022F4007224F073050C68124E2C438D686C
:1028200042EA05220E4DA84201D0B04206D1CF683F
:1028300022F4006242EA072222F48062A84201D018
:10284000B04207D14D6923F4405343EA05138D6923
:1028500043EA05134360C4614968C1630262F0BD85
:10286000002C01400034014030B5026A22F480524D
:102870000262046A4268C3690D6823F4E64343EACE
:1028800005238D6824F4005444EA0534084DA84219
:1028900002D0084DA84204D14D6922F4804242EA98
:1028A00085124260C36149680164046230BD000062
:1028B000002C01400034014010B5036A046A24F082
:1028C00001040462846924F0F00444EA021423F051
:1028D0000A020A438461026210BD10B5036A23F044
:1028E000100303628369046A23F4704343EA0232EB
:1028F00024F0A00343EA01118261016210BD0000CF
:1029000070B5044600680169E26821F44051114342
:1029100001612169A0680843616908432168CA68A8
:1029200041F20C639A430243CA6020684169A2697C
:1029300021F44071114341611E492068884202D14F
:10294000FEF7F4FA01E0FEF7E1FA00EBC00101EB5B
:102950000012606864218000B2FBF0F3B3FBF1F376
:102960006FF018067343B2FBF0F5B2FBF0F605EB1F
:102970008305322303EB0515B5FBF1F5B6FBF1F644
:1029800005F0F00505EB0615B2FBF0F6B2FBF0F032
:10299000B0FBF1F06FF01802504306EB800003EB40
:1029A0000010B0FBF1F0216800F00F0028448860AF
:1029B00070BD000000380140FEE7000001B584B0A2
:1029C0000121642204A88DE807000B46002278212B
:1029D0000248FEF789F805B000BD00006C00002039
:1029E00001B584B00121642204A88DE807000B46DC
:1029F000402278210248FEF777F805B000BD0000BC
:102A00006C000020490050EAC12018BF04204A0D84
:102A100018BF40F0010040F2FF72B2EB515F08BFF7
:102A200040F00200012808BF052070470907090E81
:102A3000002804DB00F1E02080F80014704700F06B
:102A40000F0000F1E02080F8141D70472DE9F041DF
:102A50004F1E00EBC7010446D1E9000115461E4692
:102A600037F006020DD02A46334602F009FF7F1EDA
:102A700004EBC703D3E9002302F0E2FC37F00602BF
:102A8000F1D1022F25D0042F13D0062F18BFBDE897
:102A9000F0812A46334602F0F3FED4E90A2302F01D
:102AA000CFFC2A46334602F0EBFED4E9082302F0BD
:102AB000C7FC2A46334602F0E3FED4E9062302F0BF
:102AC000BFFC2A46334602F0DBFED4E9042302F0C1
:102AD000B7FC2A46334602F0D3FED4E9022302F0C3
:102AE000AFFC2A46334602F0CBFED4E90023BDE812
:102AF000F04102F0A5BC012203F0CDBC02F0A0BC65
:102B0000002213461046114602F04ABD024A002038
:102B1000110703F0C0BC000001FDFFFF2DE9FE4FCF
:102B200007460E460025684601F062F800246FF063
:102B30000F0AE8464FF0010957F8240056F8241010
:102B4000401A00D5404203F007FB514603F0D1FC88
:102B500058F8241011F0FF4F0BD003F0FFF94FF09D
:102B60007E5103F0F1FB0A4920F00040884205DC69
:102B700007E0084908440849884202D309FA04F0EA
:102B80000543641C032CD7DB2846BDE8FE8F0000FC
:102B9000295C0F3E666666C19A99D9002DE9F04D11
:102BA0008D4F21F0004A86B005460C46BA452ADB17
:102BB000AAEB070028430AD08848824501DC1AD1D5
:102BC000CDB106B02846BDE8F04DFFF794BF844A6A
:102BD000844B284602F054FE07460E46824A834B39
:102BE0002846214602F04CFE06B03A463346BDE880
:102BF000F04D02F025BC0120FDF706FC06B0BDE853
:102C0000F04DFFF77DBF7A48824542DABAF1795F2D
:102C10000BDA2846FFF7F6FE042808BFFFF776FF19
:102C2000284606B02146BDE8F08D2A460B461046E0
:102C300002F026FE834602466E480E460B460621EB
:102C40007844FFF703FF5A46334602F019FE8046E8
:102C500069488A465A46334604217844FFF7F6FE0F
:102C60005A46334602F00CFE00223B4602F0E8FBD7
:102C700002460B464046514602F092FC2A46234645
:102C800002F0FEFD06B02A462346BDE8F04D02F0F4
:102C9000D7BB284624F0004100223D463B4602F0C7
:102CA000EDFE4FF0FF3203F0F6FB064602465348B6
:102CB0000F460B4606217844FFF7C8FE32463B46D6
:102CC00002F0DEFDCDE900014D4832463B460421CD
:102CD0007844FFF7BBFE32463B4602F0D1FD0022AE
:102CE0002B4602F0ADFB834602913046394602F096
:102CF000ADF9804643480D46504517DCDDE900013B
:102D00005A46029B02F04CFC42462B4602F0B8FDAC
:102D100042462B4602F094FB012203F0BCFB304AF2
:102D2000304B02F09DFF304A304B4CE04FF0000A30
:102D300052460B46404602F083FBCDE90310524653
:102D40002B461046194602F09BFD32463B4602F0E8
:102D500095FEDDE9033202F023FC06460F46DDE96D
:102D600000015A46029B02F01BFC8346009101229F
:102D70003046394603F08FFB194A1A4B02F07EFEAB
:102D800006460F4601224046294603F084FB5A4678
:102D9000009B02F075FD32463B4602F061FF06469D
:102DA0000F4601225046294603F075FB0E4DDFF811
:102DB00058802A46434602F061FE32463B4602F006
:102DC0005DFE2A46434602F059FE002CD8BF81F032
:102DD000004106B0BDE8F08D0000F03F0000F07F3C
:102DE000075C143326A6913C182D4454FB21F93F6F
:102DF0000000E03FA44D0000BA4D00002E4D000041
:102E0000444D00003333EF3FFB21E93F2DE9F84FFC
:102E100004460D4621F0004000917349814211DCC7
:102E20007249884201DC06D12CB120462946BDE812
:102E3000F84FFFF760BE6E48002DCCBF6D496E495C
:102E4000BDE8F88F6D49814211DD6D498142D8BFDF
:102E50004FF0FF366DDD20462946FFF7D3FD0428ED
:102E600008BFFFF753FE20462946BDE8F88F6549A5
:102E7000654F25F00045814233DD6449814219DD0B
:102E8000002632464FF080432046294602F0D8FA09
:102E900080468A4601222046294603F0FCFA002299
:102EA0003B4602F0DDFE4246534602F079FB044603
:102EB0000D463EE001260022BA463B462046294602
:102EC00002F0BEFA80460F460022534620462946AD
:102ED00002F0C6FE42463B4602F062FB04460D4647
:102EE00027E04B4981421BDDDFF828A102260022A2
:102EF00053462046294602F0C3FC00223B4602F01E
:102F00009FFA80460F46002253462046294602F08B
:102F1000A7FE42463B4602F043FB04460D4608E04E
:102F2000032622462B4600203B4902F039FB04468B
:102F30000D4622462B461046194602F0A1FC8B4650
:102F4000824602460B4602F09BFC07460246334887
:102F500088460B4606217844FFF778FD52465B46CB
:102F600002F08EFC82462E488B463A4643460521A7
:102F70007844FFF76BFD3A46434602F081FC024677
:102F80000B46002E504659460CDA02F059FA2246FA
:102F90002B4602F075FC01B022462B46BDE8F04FEF
:102FA00002F06CBD02F04CFA22462B4602F068FC9F
:102FB0001C4A7A4402EBC603D3E9002302F050FE18
:102FC00022462B4602F04CFE174A7A4402EBC60317
:102FD000D3E9002302F052FD009A002AB8BF81F025
:102FE0000041BDE8F88F0000000010440000F07FB1
:102FF000182D4454FB21F93FFB21F9BF0000DC3FB1
:103000000000203E0000F33F0000F03F0000E63FDC
:10301000008003400000F83F0000F0BF464B000076
:10302000044B0000A24A00006A4A00002DE9F04D5E
:103030009446CCF1000423F000464CEA0404524FBD
:1030400046EAD4749A46884621F00042BC4206D82B
:10305000454240EA050442EAD474BC4204D9BDE8C2
:10306000F04D6246FFF74ABDAAF14055A5F17F65D4
:1030700055EA0C040BD0022404EAAA74434DDFF88D
:1030800010E144EAD87452EA000B04D00CE0BDE829
:10309000F04DFFF7BBBE002C14BF012CBDE8F08D36
:1030A000022C30D0032C32D056EA0C0B0AD0BE4290
:1030B00020D1BA4209D126F0804622F08042334620
:1030C000114617E000291ADB25E0DFF8C8B0FB4401
:1030D000002C04BFDBE90001BDE8F08D012C02BF2C
:1030E000DBE9000181F00041BDE8F08D022C0AD03F
:1030F000032C0CD0BA4212D1B8F1000F0BDA2348DE
:103100002549BDE8F08D28462449BDE8F08D2846C4
:103110007146BDE8F08D1D482149BDE8F08D921B38
:1031200012153C2AC4BF19481D490EDCBAF1000F24
:10313000BEBF12F13C0F0020014606DB624602F0E2
:103140002FFA21F00041FFF761FE002C08BFBDE817
:10315000F08D012C04BF81F00041BDE8F08D114AD3
:10316000114B022C07D002F07BFD2A46BDE8F04D42
:103170000A4B02F075BD02F073FD2A46BDE8F04D22
:10318000064B02F07BBC00000000F07F182D445479
:10319000FB2109C0FE490000FB21F9BFFB210940CA
:1031A000FB21F93F075C143326A6A13C70B51646F7
:1031B0000A4604461946104602F0FAFF0546214623
:1031C000304602F0F5FF294602F060FEBDE870408F
:1031D00002F086BF08B560B120208DF800002820DD
:1031E0008DF8010030208DF8020038208DF80300A2
:1031F00004E0A32204216846FDF758F86A4604213A
:1032000040F69E2001F0BAFD01F078FA08BD0000FA
:103210003EB5044602208DF80000CA208DF801005A
:10322000E3208DF8020009208DF803006A4604218E
:10323000682001F0A3FDA3208DF80000610609D5E8
:10324000C0218DF80110C8218DF80210C2218DF81F
:10325000031005E08DF801008DF802008DF80300E1
:1032600014F4C07F09D0C4218DF80410CC218DF84E
:103270000510C6218DF8061005E08DF804008DF8C4
:1032800005008DF806008DF808008DF807008DF810
:1032900009006A460A2140F6A72001F06FFDA00749
:1032A0004FF0D80503D020208DF8000001E08DF804
:1032B00000506A46012140F6B62001F05FFDA006ED
:1032C00001D5012000E0002000F08EF814F4C07F4A
:1032D0001ED0E0050AD5B2208DF800008B208DF8B5
:1032E0000100B6208DF802009B2009E0B0208DF887
:1032F000000080208DF80100B4208DF8020090209D
:103300008DF803006A46042140F6A22001F036FD44
:10331000E1074FF40B6022D0F8218DF800106A46C7
:10332000012101F02BFDFA21072000F0ADFB072061
:1033300000F078FB012000F095FB642000F038FCE1
:103340004FF4FA7000F044FCC821254800F032FB2D
:10335000282000F047FB0A2000F054FB05E08DF820
:1033600000506A46012101F009FDA00703D5D920CC
:103370008DF8000001E08DF800506A46012140F20E
:103380003D7001F0FBFC600701D5012000E000204A
:1033900000F048F8E00601D5012000E00020FFF72A
:1033A00019FF104D44F00800688101F0A7F90020D2
:1033B000A873600601D50620A87314F4C07F02D05C
:1033C000A87B801DA87314F0140F02D0A87B1030C6
:1033D000A873A00702D0A87B001DA87300203EBDE3
:1033E00009E3CA02780200200EB54FF4976310B1CA
:1033F00006A107C901E008A207CA8DE807006A46CE
:103400000921184601F0BAFC0EBD0000B8AAB38D20
:10341000B4980D355D000000B8AAAAAAB088C3C54B
:10342000C700000008B560B1C0208DF80000C220C0
:103430008DF80100C4208DF80200C6208DF803002D
:1034400004E08B2204216846FCF730FF6A46042121
:1034500040F6982001F092FC01F050F908BD000000
:103460003EB54FF47A74CDE900320A460146029423
:1034700001230248FDF710FA3EBD0000C000002005
:1034800038B5002000906B4601227521D120FFF74E
:10349000E7FF9DF8000068280CD0BFF34F8F264847
:1034A0000168264A01F4E06111430160BFF34F8FC8
:1034B00000BFFDE700F072FF00283CD1782001F04A
:1034C00001FC40BB782000F09BFE20BB642001F093
:1034D000B9FB00BB00F038F8E8B91948044600F021
:1034E000D1FD0546E01C00F0CDFD45EAC005A01D5C
:1034F00000F0C8FD45EA801080B200F0D5F950B95F
:1035000040F27310FFF784FE28B9642000F034F90C
:1035100008B901F031FD012001F0BAFA00280AD102
:103520000024084801F05AFC1420FCF7D7FF641C63
:10353000A4B2322CF5D338BD0CED00E00400FA053E
:103540004E000020A4020020C8234FF480620249EC
:1035500040F6F63000F0B4BFF06D00082DE9FF4FE3
:1035600089B01746DDE9165200244C4E8846814644
:103570002C80A246B07B694601F04EF84FF0FF3B2D
:1035800018B158460DB0BDE8F08F708910F0140FD7
:103590003CD0009909BA21F0FF039DF803100B43BA
:1035A0003B6001991B1409BA21F0FF029DF8071036
:1035B0005B430A437A6002999DF80B4009BA21F0F7
:1035C000FF012143B960039C091424BA24F0FF0CC5
:1035D0009DF80F4012144CEA040CC7F80CC04FEAD7
:1035E0002C47494302FB023207FB07111144102408
:1035F000A1F17061B1F1007F04D901F07FF8A5F865
:1036000000A0BEE7298841F48071298042066946FE
:1036100011D50A19A41D13885BBAA8F80030538885
:103620005BBAA8F80230928852BAA8F804202A8817
:1036300042F008022A8010F4C07F11D00A19A41D9C
:1036400013885BBAA9F8003053885BBAA9F8023036
:10365000928852BAA9F804202A8842F070022A807F
:10366000800716D00C44E07800F0C00500F03F0160
:103670006078C00706D0C80801F007013268491C0D
:1036800002B190476078000703D5716809B1A809B5
:1036900088470C9801F0A0FB002073E77802002017
:1036A0002DE9FF41044603A800F0F2FDBDF80C002F
:1036B000410CC3032F48028902F00300550754F858
:1036C000200000D54042C2F3C105960654F82550AB
:1036D00000D56D42C2F38116D20554F8264000D5BC
:1036E0006442A0FB0367C21702FB037200FB0120C8
:1036F000820042EA9670A5FB0367EA1702FB037299
:1037000005FB0122950045EA9672A4FB0367E517C5
:1037100005FB037304FB01318B0043EA9671030E32
:103720008DF80030030C8DF80130030A8DF802305B
:103730008DF80300100E8DF80400100C8DF80500B4
:10374000100A8DF80600080E8DF80800080C8DF898
:103750000900080A8DF80A008DF807208DF80B1073
:103760006A460C214FF4257001F008FB04B0BDE857
:10377000F08100007802002030B5044613A285B025
:1037800007CA8DE807004FF0FF35C82C16D8C820AF
:10379000B0FBF4F1491E080A8DF80C008DF80D10ED
:1037A00003AA022140F2162001F0E8FA30B96A4675
:1037B0000C2140F6C12001F0E1FA10B1284605B015
:1037C00030BD054884810020F9E70000FEF2ABC45B
:1037D000AAF1DFDFBBAFDFDF78020020F8B53049A8
:1037E000098901F0030250F822404A0700D56442DB
:1037F000C1F3C1028B0650F8222000D55242C1F31A
:10380000811350F82330C80500D55B42254984FB5D
:103810000140850045EA947082FB0142A40F44EA0E
:10382000820483FB0121950F45EA8105010E8DF885
:103830000010010C8DF80110010A8DF802108DF8AE
:1038400003006A4604214FF4747001F097FA4FF0B8
:10385000FF3688B9200E8DF80000200C8DF801008D
:10386000200A8DF802008DF803406A4604214FF4C7
:10387000757001F083FA08B13046F8BD280E8DF856
:103880000000280C8DF80100280A8DF802008DF840
:1038900003506A4604214FF4767001F06FFAF8BDC8
:1038A0007802002009E3CA022DE9FF4104463CA04A
:1038B00004F00303006802903AA0006803903AA065
:1038C00006683AA0056802A8C15C8DF80010C4F330
:1038D000C101425C8DF80120C4F38112805C8DF837
:1038E000020003A8C35C8DF80430415C8DF805101C
:1038F000805C8DF806006A46032140F2264001F004
:103900003DFA4FF0FF37E0BB01AA032140F22A4005
:1039100001F034FAA8BBCDE9006560070BD59DF82E
:10392000000040F001008DF800009DF8040040F018
:1039300001008DF80400A0060BD59DF8010040F0B1
:1039400001008DF801009DF8050040F001008DF8A0
:103950000500E0050BD59DF8020040F001008DF850
:1039600002009DF8060040F001008DF806006A464E
:1039700003214FF4886001F001FA10B901AA032174
:1039800000E004E040F2314001F0F8F918B13846A7
:1039900004B0BDE8F081064804810020F8E700008B
:1039A0004CCD6C000CC92C003656760026466600BD
:1039B000780200204FF47A7290FBF2F008B5484389
:1039C000010E8DF80010010C8DF80110010A8DF820
:1039D00002108DF803006A4604214FF4AE7001F026
:1039E000CDF908BD0521B0FBF1F008B5010A8DF84D
:1039F00000108DF801006A4602214FF4AD7001F00D
:103A0000BDF908BD0521B0FBF1F008B5010A8DF83C
:103A100000108DF801006A4602214FF4AC7001F0ED
:103A2000ADF908BD08B500218DF80010C10702D01E
:103A300030218DF80010810705D59DF8001041F068
:103A40000C018DF80010400705D59DF8000040F0EE
:103A500003008DF800006A4601214FF4A47001F0C4
:103A60008DF908BD08B560B1042800D90420401EB6
:103A70008DF800006A46012140F24F1001F07EF9F6
:103A800008BD0120F3E700002DE9FC410546400791
:103A90004FF0FF367CD0B1F5C86F79D8084602F0F8
:103AA00073FB3E4902F05AFA074601A800F0D2FB28
:103AB0009DF80400022806D004280DD008282ED036
:103AC000102865D134E00E21384602F012FD02F0D4
:103AD00023FB84B2324907E00D21384602F009FD8C
:103AE00002F01AFB2F4984B2384602F061FB02F063
:103AF00013FB210A8DF8001080B28DF80140010AF5
:103B00008DF802108DF80300E8076C4620D022469D
:103B100002214FF4EA7001F031F9C8BB11E00C2129
:103B2000384602F0E6FC02F0F7FA84B21E49DBE701
:103B30000B21384602F0DDFC02F0EEFA84B21B499C
:103B4000D2E7A21C02214FF4927001F017F9F8B9E4
:103B5000A8070DD56A4602214FF4EC7001F00EF96A
:103B6000B0B9A21C02214FF4947001F007F978B9A2
:103B7000680710D56A4602214FF4EE7001F0FEF896
:103B800030B9A21C02214FF4967001F0F7F810B181
:103B90003046BDE8FC810020FBE700000000484300
:103BA000000040460000C045000040450000C04401
:103BB0000521B0FBF1F008B5010A8DF800108DF871
:103BC00001006A4602214FF4EF7001F0D7F808BDFA
:103BD0000521B0FBF1F008B5010A8DF800108DF851
:103BE00001006A4602214FF4ED7001F0C7F808BDEC
:103BF0002DE9FE430646264801AB042240680D210C
:103C00000078FEF709FA10B10720BDE8FE839DF8A1
:103C100004101C2000EAD1029DF80710DFF8749010
:103C2000C1F301131A438DF800209DF80520C1F35C
:103C3000810300EAD2021A438DF801209DF8062084
:103C400001F0030100EAD20008430024124F8DF86E
:103C50000200A0466D46285D10B146F824900AE0A7
:103C600046F824800DE000BF56F82400394602F0E3
:103C70009FFA46F82400285D401E10F0FF002855EA
:103C8000F2D1641CE4B2032CE5D30020BDE70000B0
:103C9000180000207B14AE3E1D5A843F2DE9FE4FD4
:103CA00005460120C14E8DF800004FF000088DF848
:103CB000018030680C461746417D70686B460222D1
:103CC0000078FEF7B9F94FF0FF3A00287AD1C82002
:103CD000FCF704FC8DF8008030686B460122417CC3
:103CE00070680078FEF7A8F90028EFD130686B46BD
:103CF0000122417970680078FEF79EF90028E5D12D
:103D000030686B460122417D70680078FEF794F9B7
:103D10000028DBD130686B460122817E7068007814
:103D2000FEF78AF90028D1D130686B46012201796B
:103D300070680078FEF780F90028C7D14FF00C09B1
:103D40008DF8009030686B46012201797068007828
:103D5000FEF772F9002835D10F20FCF7BFFBB06ADF
:103D60006B460122407A8DF80000306881787068D7
:103D70000078FEF761F9002824D1B06A6B46012271
:103D8000007A8DF800003068417870680078FEF79E
:103D900053F9002873D1B06A807A0FB140F0E00087
:103DA0008DF8000030686B460122817970680078D8
:103DB000FEF742F9002862D12FB1B06AC07A40F014
:103DC000E00001E04AE018208DF8000030686B4602
:103DD0000122C17970680078FEF72EF9F0BB17B1A7
:103DE000C820FCF77BFB40208DF8000030686B4654
:103DF0000122017970680078FEF71EF970BB782007
:103E00008DF8000030686B460122417970680078B7
:103E1000FEF712F910BB3220FCF760FB8DF8008032
:103E2000306847466B464179706801220078FEF79A
:103E300003F998B931687068B046097B00786B4621
:103E40000222FEF7E9F848B9BDF80000AF6040BAB9
:103E5000B0FBF9F06F60C6B22F6000E00FE0A76022
:103E600067602760002739E0D8F80010D8F8040010
:103E70006B46497B00780C22FEF7CEF810B1504615
:103E8000BDE8FE8FBDF80000236840BA02B2BDF85D
:103E90000200BDF804101A44226040BA626800B201
:103EA0001044606049BAA06809B20844A060BDF837
:103EB00006002B6840BA02B2BDF808001A4440BAA6
:103EC00001B2BDF80A002A606A6840BA114469600C
:103ED000A96800B208447F1CFFB2A860B742C3D3F0
:103EE00028688322C117090441EA10410004002315
:103EF000FCF78CF932460023FCF788F928606868E3
:103F00008322C117090441EA104100040023FCF791
:103F10007DF932460023FCF779F96860A8688322AE
:103F2000C117090441EA104100040023FCF76EF9AF
:103F300032460023FCF76AF9A86020684FF4006558
:103F4000C117090441EA104100042A460023FCF786
:103F50005DF932460023FCF759F9206060682A4673
:103F6000C117090441EA104100040023FCF74EF98F
:103F700032460023FCF74AF96060A0682A46C11760
:103F8000090441EA104100040023FCF73FF93246DE
:103F90000023FCF73BF9A060002802DDA0F580308B
:103FA00001E000F58030A060002069E718000020E3
:103FB0002DE9F84F81462E488846002540686B461B
:103FC000032200780D21FEF727F810B10720BDE885
:103FD000F88F9DF80000002400F01F008DF800000D
:103FE0009DF801006FF00F0B00F01F008DF801002D
:103FF0009DF802006E4600F01F008DF802004FF0A1
:10400000010A00BF59F8241058F82400081A00D5F6
:10401000404202F0A1F8594602F06BFA0746305DC3
:10402000C0B1144802E0144902F0C2F8315D491EE3
:1040300011F0FF013155F6D10146384601F08EFFEF
:104040004FF07E5102F080F90C4920F00040884288
:1040500005DC07E00A483844B0F1D97F02D90AFAF2
:1040600004F00543641C032CCCDB2846AFE70000BA
:10407000180000200000C84154E3853F295C0F3E32
:104080000000E0BE90F90010002902DD4FF00000B2
:10409000704702DA4FF00400704790F901100029D0
:1040A00002DD4FF00100704702DA4FF00500704763
:1040B00090F90200002802DD4FF00200704702DA9A
:1040C0004FF0060070474FF00700704708B5FCF747
:1040D000F7FDFEF793FAFDF7BFFFFEF71BF8FEF7BB
:1040E00039F8FEF757F8FEF789F8FEF7BDF8FEF746
:1040F0002FF9FEF7F9F83448FDF78EF9FEF7A0F92D
:10410000FEF77FF901F036F80028FBD1FFF7B8F988
:1041100000212E48FDF7B4FA04212C48FDF7B0FA2F
:1041200000212B48FDF7ACFA04212948FDF7A8FA35
:1041300008212848FDF76EFC0C212648FDF76AFC93
:1041400000224FF480712448FCF7D6FA012323A201
:1041500005211820FEF7E2F92248DFF88CB0DFF8DD
:104160008CA0DFF88C90234EDFF88C80234D0090DC
:10417000204801F037F8204800F030FE31695B46F6
:10418000D8F80000009AFFF711F80446686801F0BB
:10419000A7FF0746286801F0A3FF4B465246394661
:1041A00000F07AFF002C02DD04F6B83401E0A4F63A
:1041B000B834204441420C460120FEF7E7F821467E
:1041C0000220FEF7E3F8D3E7EC0100201401002001
:1041D0005C010020A40100200008014068656C6CAF
:1041E0006F00000000002043000020420000C84291
:1041F000CDCC4C3D88020020A4020020000000200D
:104200002DE9F041124C20F00101002594F8240022
:1042100010B10020BDE8F081A07A4FF0FF3668B100
:104220000840277C2074884200D0354641B10120E7
:1042300000F0E0FE00F062FA38B127743046E9E79A
:10424000207D00B1012000F0D5FE2846E2E7000005
:10425000180000200D494A7A42B1012A08D0022AEA
:104260000FD0032A0FD04FF0FF307047022200E03A
:1042700004220270C97C11B11106C90D0170002021
:1042800070470822F5E71022F3E70000180000202D
:104290000F494A7A42B1012A09D0022A11D0032AD1
:1042A00012D04FF0FF3070474FF4804201E041F6EA
:1042B0009C720280C97C11B1C2F34E0101800020C2
:1042C00070474FF48052F4E74FF40062F1E70000CA
:1042D000180000200B49097A39B1012907D00229B9
:1042E0000AD003290BD0002103E0FA2101E04FF4AA
:1042F000FA710180002070474FF47A71F9E74FF4AA
:10430000FA61F6E7180000200A49097A41B101294B
:1043100008D002290AD003290AD04FF0FF30704795
:10432000054900E005490160002070470449FAE7AB
:104330000449F8E71800002000000343000083420E
:1043400033330342333383410C49C97A072913D2EB
:10435000DFE801F01204060A0C0E1000BC2100E098
:1043600062210180002070472A21FAE71421F8E732
:104370000A21F6E70521F4E70021F2E71800002002
:10438000054991F8242012B14FF0FF307047C989D8
:104390000180002070470000180000202DE9FC413A
:1043A000464C80208DF8000020686B460122417D3C
:1043B00060680078FDF740FE4FF0FF37002875D1A8
:1043C0006420FCF78BF800258DF8005020686B46C0
:1043D0000122417D60680078FDF72EFE002865D13E
:1043E00020686B460622417E60680078FDF714FE67
:1043F00000285BD19DF805009DF80310C007400F11
:1044000001F0010140EA41009DF801104FF0010662
:1044100001F00101084304D0012831D0022810D056
:1044200044E020686B460122C17860680078FDF79F
:10443000F3FDD8BB9DF8000010F00F0036D0042823
:104440001ED0E574FF2004F80A0F4FF6FF7104F840
:10445000020C04F8010C6070A180A0712072A6709B
:1044600026766576E572A572E56025616561A576BB
:10447000E576A5834FF4FA6000F046FBB0B901E0A1
:10448000E674DFE7022000F061FA78B92A2000F034
:10449000A3FB58B9322000F0D5FB38B90020FFF754
:1044A000AFFE18B9002000F085FA10B13846BDE81B
:1044B000FC81002000F006FC0020F8E71800002036
:1044C0002DE9FF4FDFF89480064685B098F8250067
:1044D00015460F464FF0FF39B0BBAFB3002420E0C4
:1044E000301B102800DD102080B283463A190146A7
:1044F0009246204600F042FC30BB6A4659462046B0
:1045000000F0D2F800BB50465A466946FBF7A2FEBF
:1045100020B16FF0010009B0BDE8F08F04EB0B0093
:1045200084B2B442DCD3280A8DF810008DF8115003
:10453000D8F80000444604AB417FD8F804000222BA
:104540000078FDF779FD08B14846E4E7012084F8DA
:1045500025000898E0840020DDE700001800002016
:104560002DE9F84305464FF0FF39282844D807279E
:10457000284C00267DB1012000F0FCFA20208DF8A7
:1045800000004FF00108012D17D0052D18D88DF827
:10459000018005201FE0002000F0ECFA8DF800609B
:1045A0008DF8017020686B460222417D60680078BA
:1045B000FDF742FD00BB267529E08DF80160E8E7B4
:1045C000142D04D802208DF801000A2003E00320F6
:1045D0008DF80100142000F0FFFA9DF801006B46F1
:1045E00007EB80108DF8010020680222417D606891
:1045F0000078FDF721FD10B14846BDE8F88308209A
:10460000A072267384F814800020FFF7F9FD0020C3
:10461000F3E70000180000202DE9F843214C06467E
:10462000174694F8240089464FF0FF3890B3A07ADB
:1046300080B320686B460222017B60680078FDF73A
:10464000EBFC38BBBDF8000045BAB54202D20020F1
:1046500038701FE060684188B5EB510F11D92168AF
:1046600000786B46C97C0122FDF7D6FC90B99DF815
:104670000000C00605D500F041F86FF00100BDE86C
:10468000F8832068F2B24B46417B60680078FDF702
:10469000C3FC08B14046F2E7B5FBF6F0401E3870A7
:1046A0000020ECE718000020F8B516000D464FF08A
:1046B000FF371FD0104CA17AE1B1010A8DF800102C
:1046C000C0B28DF80100411960684289914211D849
:1046D000216800786B46C97E0222FDF7ADFC48B91F
:1046E0002068EAB23346017E60680078FDF794FCEA
:1046F000002800D03846F8BD18000020F8B5564C08
:104700004FF0FF36A07A00287DD000258DF80050AC
:1047100020686B460122417C60680078FDF78CFCC4
:10472000002870D120686B460122417960680078CA
:10473000FDF782FC002866D120686B4601220179D2
:1047400060680078FDF778FC00285CD194F82400BC
:10475000E0B30C208DF8000020686B46012201793F
:1047600060680078FDF768FC002872D13220FBF702
:10477000B5FEC0208DF80000A07AC00702D0E0206E
:104780008DF8000020686B4601220179606800788E
:10479000FDF752FC00285CD1607C18B102208DF836
:1047A000000001E08DF8005020686B460122417C3A
:1047B00060680078FDF740FC28BB8DF80050206849
:1047C0006B4601224179606800783EE0FFE70420F3
:1047D0008DF8000020686B4601220179606800783E
:1047E000FDF72AFC78B9A07C90B9A07AC0070FD059
:1047F0005FF060008DF8000020686B4601220179AF
:104800006068007800E024E0FDF716FC08BB01E0DA
:104810004020EFE73220FBF761FE607C18B10120F9
:104820008DF8000001E08DF8005020686B460122F1
:10483000417C60680078FDF7FFFB50B92068064BAB
:1048400001224179606810330078FDF7F5FB0028FC
:1048500000D03046F8BD0000180000202DE9F047D8
:10486000394C82468AB094F824000F4620B10020CB
:1048700000F00EF9012600E0002607A8FFF72AFD48
:1048800006A8FFF7E7FC09A8FFF75EFD08A8FFF7F9
:1048900077FD94F80A9094F810800025002239469C
:1048A0005046FFF7FBF910B16D1C022DF6DB022D0F
:1048B0001AD00025012203A96846FFF7EFF910B1CD
:1048C0006D1C022DF6DB022D0ED003A93846FEF733
:1048D00025F9C7B269465046FFF76AFB10F0FF0F93
:1048E0004FF0000502D002E0002503E001250FB9DA
:1048F00045F00205FF2020726072E0724FF6FF71F2
:10490000E181A072207401202073BDF81C0000F02A
:10491000FBF89DF8180000F019F8BDF8240000F02D
:104920005BF9BDF8200000F08DF9484600F0CAF9A7
:104930004046FFF765FC16B1012000F0A9F80AB067
:104940002846BDE8F08700001800002038B5184C54
:104950004FF0FF35A17A19B3022806D0042806D0FB
:1049600008280ED010281BD10DE0002000E0082000
:104970008DF80000607A9DF80010B0EBD10F04D0E4
:1049800005E01020F4E71820F2E7002038BD206889
:104990006B460122C17960680078FDF74DFB08B1D4
:1049A000284638BD9DF80000C0086072EDE70000A1
:1049B00018000020F8B5354C0546A07CA84201D16E
:1049C0000020F8BD31484FF0FF366B46D0E90010AB
:1049D0004FF001020979007835B3FDF71DFB70BB7C
:1049E0009DF800006B4620F020008DF80000206844
:1049F0000122017960680078FDF71EFBF8B90320F9
:104A0000FBF76CFD02208DF8000094F8220078B3CB
:104A100082202BE020686B460122C17D606800780F
:104A2000FDF70AFB58B92EE0FDF7F6FA38B9A07A7F
:104A3000C0079DF8000003D040F0200002E00CE029
:104A400020F020008DF8000020686B4601220179DB
:104A500060680078FDF7F0FA08B13046F8BD032031
:104A6000FBF73CFD94F8220000B180208DF8000097
:104A700094F823000028CDD09DF8000040F03000CD
:104A80008DF80000C6E7A5749AE700001800002022
:104A900038B51C4C94F8241081421DD0002500B379
:104AA00094F82500D0B1002000F0A4FA0020FFF710
:104AB00081FFE08C00F0C6F88DF8005060686B460E
:104AC000012200782321FDF7B7FA012084F82400A1
:104AD00000F090FAFFF712FE002038BD4FF0FF30D3
:104AE00038BD002000F086FA207C8DF80000606858
:104AF0006B46012200782321FDF79EFA84F82450AA
:104B0000E8E700001800002038B5194C4FF0FF35D9
:104B1000A17A31B3FA2809D0B0F5FA7F08D0B0F500
:104B20007A7F0FD0B0F5FA6F1BD10DE0002000E0C6
:104B300008208DF80000207A9DF80010B0EBD10F0E
:104B400004D005E01020F4E71820F2E7002038BD7B
:104B500020686B460122817960680078FDF76CFA65
:104B600008B1284638BD9DF80000C0082072EDE766
:104B70001800002038B5174C054694F82300A842C9
:104B800001D1002038BD0DB1302000E000208DF8AB
:104B90000000A07C28B19DF8000040F002008DF8D4
:104BA000000094F8220028B19DF8000040F0800039
:104BB0008DF8000020686B460122C17D6068007896
:104BC000FDF73AFA10B14FF0FF3038BD84F82350AA
:104BD000D7E700001800002038B5194C4FF0FF351A
:104BE000A17A31B3BC2801D3012010E0622801D39F
:104BF00002200CE02A2801D3032008E0142801D366
:104C0000042004E00A2801D3052000E006208DF8E6
:104C10000000E07A9DF80010884201D1002038BDE4
:104C200020686B460122817860680078FDF704FAFD
:104C300008B1284638BD9DF80000E072EEE700009C
:104C400018000020F8B51E4D04464FF0FF37A87A33
:104C500048B395F8240030BB287D4FF47A7648B1EC
:104C600064B1282C03D8E0B2FFF77AFC26E00020DC
:104C7000FFF776FC042C05D2042406E00020FFF7A1
:104C80006FFCF9E7B44200D93446B6FBF4F0401E9D
:104C90008DF8000028686B4601224178686800782A
:104CA000FDF7CAF908B13846F8BD9DF80000401C70
:104CB000B6FBF0F0E8814008FFF78EFF0020F8BD5A
:104CC00018000020F8B5054610F0700F4FF00006F0
:104CD00001D0012004E015B18DF8006002E0402011
:104CE0008DF80000244C6B4601222068417D6068ED
:104CF0000078FDF7A1F94FF0FF3760BB9DF8000089
:104D000020F0400020738DF80060680602D4042073
:104D10008DF80000A80605D49DF8000040F00200C0
:104D20008DF80000E80605D49DF8000040F0010071
:104D30008DF80000280705D49DF8000040F03800E9
:104D40008DF8000020686B460122817D6068007844
:104D5000FDF772F910B1A6723846F8BD25B1082DDD
:104D600002D00020FFF706FFA57226753220FBF760
:104D7000B5FB0020F8BD000018000020F8B51600B3
:104D80000D464FF0FF371FD0104CA17AE1B1010A58
:104D90008DF80010C0B28DF8010041196068428999
:104DA000914211D8216800786B46C97E0222FDF736
:104DB00043F948B92068EAB23346017E606800785A
:104DC000FDF73AF9002800D03846F8BD1800002059
:104DD000002800DA40427047704700002DE9F04F8C
:104DE0008DB004460BA902A8CDE900010CAB03AAC3
:104DF00009A907A8FEF7B2FB18B101200DB0BDE864
:104E0000F08FBDF80800C0057DD5039801F0A4F926
:104E10006FF01D05294601F06CFB8346049801F0F4
:104E20009BF9294601F065FB8146059801F094F94C
:104E3000294601F05EFB8046069801F08DF929466F
:104E400001F057FB82460121584601F052FB06460D
:104E5000414601F0ADF907464FF04041484601F0A8
:104E6000A7F90546514601F0A3F9394601F00EF8BD
:104E700000F0E0FFFDF792FE4FF0C0423D4B00F026
:104E8000FFFC00F0ABFA20600121404601F031FB4D
:104E90004146009001F08CF907462846494601F04A
:104EA00087F9394601F050FA4FF07E5100F0EEFFDD
:104EB00000F0C0FF07460D463046494601F078F93C
:104EC00006465146009801F073F9314600F0DEFFC6
:104ED00000F0B0FF3A462B46FEF7A8F84FF0C0426C
:104EE000244B00F0CDFC00F079FA51466060084692
:104EF00001F05EF907464146084601F059F90646B9
:104F00004946084600E032E001F052F905465946AC
:104F1000084601F04DF9294600F0B8FF314601F08E
:104F200013FA394601F010FA00F084FF06460D46E8
:104F30005146584601F03CF907464146484601F0C3
:104F400037F9394600F0A2FF012101F0D2FA00F052
:104F500071FF32462B46FEF769F84FF0C042054B11
:104F600000F08EFC00F03AFAA060002046E7022034
:104F700044E7000066A64C4010B588B0694604A816
:104F8000FFF76CFC032832D107A8FFF7BDF904989E
:104F900001F0E2F807990C4601F00AF901F0A0F8D7
:104FA0000490059801F0D8F8214601F001F901F0CC
:104FB00097F80590069801F0CFF8214601F0F8F82F
:104FC00001F08EF8069004A8FEF708FC03A8FFF78E
:104FD0005FF9BDF80C0000994143009101994143EC
:104FE00001910299414368460291FEF759FB08B0CE
:104FF00010BD0000F8B5144C0146224694F8246018
:10500000D2E9000200235D1E56B179B1022111E000
:10501000417C10786B460122FDF70EF868B90EE06E
:10502000A67A56B111B1617C61B902E08DF8003009
:10503000EEE701218DF80010EAE72846F8BD9DF85B
:10504000000060740020F8BD180000202DE9F04138
:1050500006460F4600F01EFD041E0D4618BF012037
:10506000284320F00040C0F17F6000F1E040C00F15
:105070000ED0301C18BF0120384320F00040C0F192
:105080007F6000F1E040C00F04BF0120FBF7BCF9D6
:1050900020462946BDE8F0812DE9F0472A48984688
:1050A000914601682948006800F0F0FE284C064649
:1050B000A06800F0BFFE274D274B2A4600F0E0FB1A
:1050C00000F08CF90746304600F0B4FE2A46234B28
:1050D00000F0D6FB05460E46384600F0ABFE2A46E9
:1050E000334600F0ADF900F079F905460146A060BD
:1050F000206900F0CBFEE16801F026F91849206133
:10510000884202DC1749884200D921614146206962
:1051100001F04EF806464946284601F049F8314666
:1051200000F0B4FE10492060104A0968914202D88C
:105130000F4A914201DD00212161BDE8F04780F076
:10514000004000F0CDBF000004000020000000205F
:10515000580000209A9999999999E93F9999C93FDE
:105160000080BB440080BBC4A40200200000F0C14A
:105170000000F04110B50020184902460A54401CB6
:105180001C28FBD300F0E2F815490328087024D04E
:1051900000216B2000F00CF9032000F0F6F800204D
:1051A00000F0E0F8132000F0FAF8042000F0E4F832
:1051B0008021372000F0FCF80021382000F0F8F8BA
:1051C00000216A2000F0F4F801216B2000F0F0F8D3
:1051D00000216C2000F0ECF8002010BD88020020B7
:1051E000440000202DE9FF4104460E2269463B2081
:1051F00000F09AF8012873D0BDF8000040BA00B260
:1052000000F0AAFF05462060BDF8020040BA00B2D7
:1052100000F0A2FF06466060BDF8040040BA00B28C
:1052200000F09AFF80466FF00D073946284601F0DE
:1052300060F920603946304601F05BF9606039461C
:10524000404601F056F9A060BDF8080040BA00B22F
:1052500000F082FF0646E060BDF80A0040BA00B2E6
:1052600000F07AFF05462061BDF80C0040BA00B29C
:1052700000F072FF8046304600F0DCFD1A4F4FF020
:10528000663632463B4600F08BF900F0A7F8E06046
:10529000284600F0CFFD32463B4600F081F900F091
:1052A0009DF82061404600F0C5FD32463B4600F0C7
:1052B00077F900F093F86061BDF806000B4940BA39
:1052C00000B2088100F0C4FA0022094B00F068F92E
:1052D0000022084B00F0B4F800F080F8A061002034
:1052E00004B0BDE8F0810000666630404400002054
:1052F00000407540D74342400EB5094940F6FF7360
:1053000001228DE80E0013460246D1210548FBF725
:10531000C3FA08B101200EBD0148801E80780EBD81
:1053200046000020C00000200EB540F6FF738DE857
:105330000E0002460123D1210348FBF7ADFA0028F5
:1053400000D001200EBD0000C000002010B5752067
:10535000FFF7D2FF02490128487000D1032010BD99
:1053600044000020C00610B5010E1C2000F020F8FB
:10537000002800D0012010BD10B5C1B21A2000F0E5
:1053800017F8002800D0012010BDC00610B5010E8E
:105390001B2000F00DF8002800D0012010BD10B532
:1053A000C1B2192000F004F8002800D0012010BD7F
:1053B0001FB540F6FF738DF80C10012203A98DE88C
:1053C0000E0013460246D0210348FBF78DFB002850
:1053D00000D0012004B010BDC000002021F0004228
:1053E000A2F16052B2F5801F01F0004328BFD2F154
:1053F0007F6C0BD95FEA001C43EAC20242EB50709B
:1054000018BF704728BF20F001007047B2F5801F19
:10541000BCBF184670474FEA410C1CF5001F02D272
:10542000084600F08CBF70B500F0D4FA0000008987
:10543000FFF7F6BF4FF00040A0F580007047000076
:1054400010B591EA030F48BF83F0004300F11084C8
:10545000841A71EB030C05D2121943EB0C03001BE9
:1054600061EB0C01DFF824E14FEA1154A4EB135C6B
:105470001EEA430F18BF9EEA445F73D023EA0E036F
:10548000DCF1200E21EA045143F4801332D322FAD6
:105490000CFE10EB0E0023FA0CFE41EB0E01CCF1DA
:1054A000200E03FA0EFE10EB0E0051F10001B1F5D3
:1054B000801FCCF1200E32D201EB045112FA0EF211
:1054C000BDE8104058BF7047401C38BF5FEA420239
:1054D00018BF7047002814BF20F0010041F10001FF
:1054E0004FEA410313F5001F38BF7047A1F1C041D7
:1054F00000F0BEBA012A43EB0302ACF1200CDCF150
:105500001F0E32BF4FF0000E23FA0CF310EB030016
:1055100041EB0451B4EB115FD0D0A1EB045101F584
:10552000801149085FEA300001EB04510ED350F1BD
:10553000000038BF12FA0EFE08D1BDE81040C9E7DE
:10554000401C38BF5FEA4202CAD1C3E7BDE8104041
:105550004FEA410313F5001F38BF7047A1F1C04166
:1055600000F086BA9EEA445F08D011EA5E0FBDE8FB
:10557000104004BF01F0004100207047BDE810401A
:1055800070B500F027FA00BF64FBBE3E0000E0FFEC
:1055900002494FF0000000F04CBF00BF0000F87F50
:1055A0002DE9C04130B4DFF8A0C23CEA111418BFA5
:1055B0003CEA131400F0EC8081EA03051CEA1114A4
:1055C00044EAD57418BF1CEA131500F0C780A4EB99
:1055D00005044FF0004545EAC12145EAC32341EAED
:1055E000505143EA525304F17F74994204F5003458
:1055F0004FEAC0204FEAC22208BF904200F09C80D0
:105600004FEA13650FF24016765D4FEA134506FB2D
:1056100005F7C7F1807706FB07F74FEAD737A7FBF7
:1056200003687642C8F58038A7FB06CE38BFA8F1DC
:10563000010807FB08E64FF0000EA6FB028CE6FB14
:1056400003CEDCF1000CCEF1004E38BFAEF1010EFE
:10565000A6FB0C584FF000074FF00005E6FB0E8745
:10566000A1FB08C6A0FB07CE16EB0E0645F1000510
:10567000E1FB076515F1E04E7EBFA4F580345FEADB
:1056800046066D4116F1800745F100054FEA1727E0
:105690004FEA066647EA0567A6F1DE46B6F1805F87
:1056A0004FEA15251FD9384624F0010C05EBC471CB
:1056B000BCF1FE6F01EB0C1102D8F0BCBDE800811B
:1056C00024425CBF01F5801E9EEAC47F02D4F0BC78
:1056D000BDE80081244238D4F0BCA1F1C041BDE84E
:1056E000004100F0C5B94FEAD22242EA43524FEAE4
:1056F000D323A7FB02864FEAD02040EA415007FBA4
:1057000003661EEA0E0F4FEAD12105FB026658BF61
:10571000A6EB0056B6EB00564FEA520E4EEAC37E99
:1057200018EB0E0E56EB530EBDD518EB02085E417A
:105730007F1C55F10005B6E74FF480154FF00007C8
:105740004FF000064FF00008ADE7F0BC4FF000004E
:1057500001F1C04101F00041BDE8008111EA0C1FD8
:105760000CEA131500D00CE013EA0C1F00F02580A2
:105770004FF00000F0BC81EA030101F00041BDE8F8
:105780000081F0BCBDE8004181EA030100F070B97E
:10579000F0BCBDE8004170B500F01CF9097EFC3E8C
:1057A00000F007B881EA03014FF0000001F000416A
:1057B000704781EA030100F05BB9F0BCBDE800412D
:1057C0004FF0000021497047FFFDFBF9F7F5F4F2B7
:1057D000F0EEEDEBE9E8E6E4E3E1E0DEDDDBDAD88C
:1057E000D7D5D4D3D1D0CFCDCCCBCAC8C7C6C5C4EA
:1057F000C2C1C0BFBEBDBCBBBAB9B8B7B6B5B4B301
:10580000B2B1B0AFAEADACABAAA9A8A8A7A6A5A4EB
:10581000A3A3A2A1A09F9F9E9D9C9C9B9A999998AF
:105820009797969595949393929191908F8F8E8E52
:105830008D8C8C8B8B8A89898888878786858584DF
:1058400084838382828181800000FF070000F87FCB
:1058500010F0004248BF4042B0FA80F310FA03F162
:105860000AD0C3F11D0303F580634FEA415002EBF8
:10587000035202EBD12170474FF000007047000047
:10588000DFF848C170B51CEA111E1EBF1CEA1315D3
:105890009EEA0C0F95EA0C0F00F06F8081EA03047A
:1058A00023EA4C134EEAD47E21EA4C1141F48011D4
:1058B00043F48013AE44A1FB024CA0FB0365AEF1A0
:1058C0007F7E361955EB0C05A1FB034C4CF1000310
:1058D000A0FB021C16EB0C06654153F100030942C4
:1058E00018BF46F0010613F4007F0BD14FEA0331D5
:1058F0004FEA0530340341EA155140EA16506FF083
:1059000003020AE04FEAC3214FEAC520F40241EA4C
:10591000555140EA56506FF0020202EB2E4201EB65
:10592000025585EACE710AD05FEA440C18BF24F014
:10593000004450F1000041F1000120EAD47040F22F
:10594000FE7C624500D270BDA84214BF4FF0804477
:105950004FF04044002E08BF0024BEF1806FA8BF66
:10596000A1F1C041BDE8704080F282804FF000009C
:1059700001F1C04101F0004170479EEA0C0F0CEAB2
:10598000131518BF95EA0C0F06D04FF0000081EAFE
:10599000030E0EF0004170BD00F01CF88900013EBE
:1059A00000F007B800F009B84FEA430C5FEA5C5C0E
:1059B00008D081EA030100F05BB84FEA410C5FEACE
:1059C0005C5CF6D14FF00000014970470000FF0712
:1059D0000000F87F0EF1020E2EF0030E5EF8046B4D
:1059E000364205D4012A43EB030515F5001F12D8F2
:1059F000012841EB010C1CF5001F0CD80ED14FEA19
:105A0000D17C15F5001F0CEB4C0C0CF1020C08BFFF
:105A10004CEBD37C04E04FF0080C01E04FEAD37C60
:105A20000CEB4C0526FA05F606F00706B6F1040C59
:105A300006D20EEB860CBDE870404CF0010C6047BE
:105A4000DFE80CF0090B02024FF000414FF00000BC
:105A5000A1F5002170BD19461046012851EB010443
:105A600018BFD4F5001484BF002001F0004170BDC0
:105A70000808A0F500114FEA3101704791EA030FC1
:105A800010B581F000413FF5E3AC83F0004300F036
:105A9000EFB800002DE9F04101F5801CBCF5001FB6
:105AA000C0F2C3804FEA115C21EA0C510CF1FD0CED
:105AB00041F480115FEA5C0C0CF5C07C01D340001E
:105AC00049413DA4890241EA905187028E0E0A0C99
:105AD000A45D04FB04F602FB06F6C6F14046A4FBF7
