:020000040800F2
:1000000000090020E501000865330008C12B000845
:10001000013300085D1400081D39000800000000CD
:100020000000000000000000000000005B35000838
:100030005F14000800000000593500085D35000815
:10004000FF010008FF010008FF010008FF01000890
:10005000FF010008FF010008FF010008FF01000880
:10006000FF010008FF010008FF010008FF01000870
:10007000FF010008FF010008FF010008FF01000860
:10008000FF010008FF010008FF010008FF01000850
:10009000FF010008FF010008FF010008FF01000840
:1000A000FF010008FF010008FF010008FF01000830
:1000B000FF010008FF010008FF010008FF01000820
:1000C000FF010008FF010008FF010008FF01000810
:1000D000FF010008FF010008FF010008FF01000800
:1000E000FF010008FF010008FF010008FF010008F0
:1000F000FF010008FF010008FF010008FF010008E0
:10010000FF010008FF010008C1350008FF010008D9
:10011000FF010008FF010008FF010008FF010008BF
:10012000FF010008FF010008FF010008FF010008AF
:1001300000F002F800F047F80AA090E8000C8244B2
:100140008344AAF10107DA4501D100F03CF8AFF28F
:10015000090EBAE80F0013F0010F18BFFB1A43F0A5
:10016000010318473087000050870000103A24BF71
:1001700078C878C1FAD8520724BF30C830C144BF0C
:1001800004680C607047000000230024002500264E
:10019000103A28BF78C1FBD8520728BF30C148BFEA
:1001A0000B607047662906F0D487002070471FB5A2
:1001B00000F024FC04000020002105F0A1FFE06015
:1001C0001FBD10B510BD00F019FD1146FFF7EFFF80
:1001D00004F022FF00F037FD03B4FFF7F2FF03BC89
:1001E00000F07AFD0948804709480047FEE7FEE72E
:1001F000FEE7FEE7FEE7FEE7FEE7FEE7FEE7FEE7D7
:1002000004480549054A064B70470000BF35000801
:100210003101000800030020000900200005002033
:100220000005002010B54C1084EA530404D5404268
:10023000C1F1000138BF491E1B4204D55242C3F12F
:10024000000338BF5B1E00F00AF914F0804F04D0A1
:100250004042C1F1000138BF491E14F0004F04D0E4
:100260005242C3F1000338BF5B1E10BD0FB41CB572
:10027000074B06AA7B4469460090059800F083FB73
:100280000020694600F092FB1CBC5DF814FB0000E6
:10029000350700002DE9F0474FF0000A8946044673
:1002A000C0F820A02046E1688847002876D025289D
:1002B00006D0D4E901219047206A401C2062F1E772
:1002C000E168204600258847C4F81CA006460027A0
:1002D000C4F818A02A2E09D0304603F0D1FB38B359
:1002E00004EB8708303EC8F8186019E059F8041B81
:1002F000204604EB87029161E1688847012F06469A
:1003000018D1E069002820DA25F020051DE0D8F892
:10031000180000EB800006EB40003038C8F81800E9
:100320002046E1688847064603F0AAFB0028EED184
:10033000012F0AD02E2E08D12046E16888477F1C65
:100340000646022F45F02005C4DBA069002803DA29
:10035000404245F00105A061E80701D025F01005F5
:10036000B6B1A6F14100192802D8203645F400653F
:100370004A463146204625604D46FFF713FF58B1E7
:10038000012806D0ED1D25F0070000F1080989E7D6
:1003900004E005F1040985E730468AE7206ABDE8F4
:1003A000F08740EA010310B59B070FD1042A0DD353
:1003B00010C808C9121F9C42F8D020BA19BA884246
:1003C00001D9012010BD4FF0FF3010BD1AB1D30785
:1003D00003D0521C07E0002010BD10F8013B11F8BB
:1003E000014B1B1B07D110F8013B11F8014B1B1BE4
:1003F00001D1921EF1D1184610BD02F0FF0343EA6D
:10040000032242EA024200F0D8BA4FF0000200B5DF
:10041000134694469646203922BFA0E80C50A0E827
:100420000C50B1F12001BFF4F7AF090728BFA0E8D5
:100430000C5048BF0CC05DF804EB890028BF40F8A1
:10044000042B08BF704748BF20F8022B11F0804FE3
:1004500018BF00F8012B704770477047704753EA88
:10046000020C00F069802DE9F04B4FF00006002BE4
:100470001FBFB3FA83F503FA05F424FA05F65E40CC
:1004800012BF1643B2FA82F502FA05F4C5F120054F
:100490001EBF22FA05FC44EA0C04203556EA044C3F
:1004A0004FEA144418BF641C4FF000084FF00009D5
:1004B000904271EB030C39D3002919BFB1FA81F7CF
:1004C00001FA07F6B0FA80F700FA07F6C7F120073D
:1004D0001EBF20FA07FC46EA0C062037B6FBF4FCE8
:1004E000A7EB0507103F07F01F0BCBF120060CFA16
:1004F0000BFB2CFA06F644BFB3460026202FA4BF00
:100500005E464FF0000B5BEA060C08BF4FF0010B94
:1005100019EB0B09ABFB027C48EB0608C01B06FB82
:1005200002CC0BFB03CC71EB0C01C1E70B4602467E
:1005300041464846BDE8F08B13B54FF000004FF040
:100540000001AFF30080BDE81C40704710B500F01B
:1005500059FA006810BD10B5044600F053FA046063
:1005600010BD70472DE9FF4F0C461E464FF0FF3778
:100570008BB0D2E90001DDF860800A908A46C1F3B1
:100580000A5505B93D46002108464FF00000BAF172
:10059000000F00F4400005DA00EB80004FF440014A
:1005A00001EA50004FEA9059B9F1010F00DDB94658
:1005B0000A9850EA4A000ED044F61050A5F2FF35D2
:1005C00045432F14B8F1000F1ED07542291E1EDDC1
:1005D000C9F100021CE0B8F1010F4FF0000001D09A
:1005E000302103E0F24305E02154401CB042FBDB24
:1005F00030460022002121540B99C1F80880C1E93E
:1006000000200FB0BDE8F08FBD1B6D1CDEE74A4631
:1006100000DA694206A800F07FFA06AB93E807000B
:1006200003AB83E8070050460A9900F05CFB8DE8B5
:100630000700A0F500501F3800900398002D09DD39
:1006400042F21F014A46084403A90390684600F09D
:10065000BBFD08E0A0F500504A461F3803A90390EF
:10066000684600F0C5FD8DE807000004000C03D0CB
:100670004FF0FF30410800E01046B8F1000F03D002
:100680000022009215461EE0751E05D400F0BEF94A
:10069000303262556D1EF9D5B3460122084302D0AF
:1006A00000227F1C04E02078302801D100227F1E28
:1006B000002A099786D01DE0112D07DA00F0A6F96F
:1006C000303262556D1C50EA0102F5D1084302D068
:1006D0000098C8B10EE00021681E05E0235C625C52
:1006E00063542254401E491C8142F7DBAB46A81BD1
:1006F000401E0990002004F80B000B98099AC0F8DE
:100700000880C0E9002B7CE711264FF0000859E76C
:100710002DE9F04F88460446D21D22F0070191B022
:10072000D1E90001CDE90A0103F01EF902460B9858
:10073000C00F01D02D2007E02068810701D52B20B4
:1007400002E0202101EAC000032A099001D0072A13
:1007500005DB03464146204600F09EF90BE1207878
:10076000800601D5E06900E00620B8F1650F8146FA
:1007700006D0B8F1660F18D0B8F1670F70D131E02C
:100780000020B9F1110F009001DB112301E009F104
:1007900001030AAA01A90CA8FFF7E4FEDDE90C7029
:1007A000002609F10105834647E001204B460090F1
:1007B0004FF000470AAA01A90CA8FFF7D3FEDDE914
:1007C0000DB00C995D46002610B909F101000D1815
:1007D000B9EB050003D4C0F1FF3609F10105A5EB23
:1007E00009002BE0B9F1010F01DA4FF001090020F7
:1007F000B9F1110F0090484601DD112300E00346D6
:100800000AAA01A90CA8FFF7ADFEDDE90C704D4660
:1008100000268346207800070AD4AB4500DA5D46FF
:1008200001A8012D04DD411911F8011C302907D060
:100830004F4502DA17F1040F04DA012082460FE077
:100840006D1EEEE7002F02DCED1B3E4403E0781C3A
:10085000A84200DD7D1CB81B00F1010A4FF00047E3
:100860002078000703D4AA4501DB4FF0FF3A0021AE
:10087000B7F1004F0DF143088DF8431024D002204A
:100880002B23002F01DA7F422D230A21021EA0F123
:10089000010000DC5FB197FBF1FC97FBF1F201FB7B
:1008A0001C7C17460CF1300C08F801CDEEE7A8F1DE
:1008B000010003702188090501D5452100E065216B
:1008C000A0F1010800F8011C09980FA9A1EB080785
:1008D000FF1D00B10120411901EBEA70A169384404
:1008E000081A401EA0612078C00602D42046AFF34B
:1008F0000080099828B1D4E901219047206A401C62
:1009000020622078C00622D52046AFF300801EE08A
:10091000002E04DBB34502DD01A8805D00E030203D
:10092000D4E901219047206A401C2062761CAAF17C
:1009300001005FEA000A0AD100F060F8C0680168AF
:10094000405CD4E901219047206A401C2062281EA7
:10095000A5F10105DCDC07E0D4E9012118F8010B61
:100960009047206A401C2062381EA7F10107F3DC83
:100970002046AFF30080032011B043E601694A1C12
:1009800002610878704700B58FB0CDE901310021D0
:10099000059105497944CDE9031011466846FFF7F2
:1009A00079FC0FB000BD0000E5FFFFFF0A6802F808
:1009B000010B0A6070474FF000020429C0F012805A
:1009C00010F0030C3FF423ADCCF1040CBCF1020F8A
:1009D00018BF00F8012BA8BF20F8022BA1EB0C01D7
:1009E000FFF715BD5FEAC17C24BF00F8012B00F8BA
:1009F000012B48BF00F8012B7047000000487047EA
:100A0000BC020020004870479C02002030B5B0F1C5
:100A10000A024FEA900E71F100034EEA817EB0EBBC
:100A20000E0061EB91014FEA101E4EEA017E10EBC1
:100A30000E0041EB11114FEA102E4EEA016E10EB41
:100A40000E0041EB11214FEA104E4EEA014E10EB21
:100A50000E0041EB1141401841F100014FEAD00076
:100A600040EA41704FEAD10110EB80054FEA810462
:100A700044EA907444EB01046D1944EB0404521BE6
:100A8000A3414FF0000348BF0A3200D530BD401CDF
:100A900041F1000130BD00002DE9F0411F46044640
:100AA00003260168072A01F4006004DB08B116A5DB
:100AB00005E016A503E008B115A500E015A521F095
:100AC00010002060A069C01EA0610FB1401EA0618F
:100AD0002046AFF300804FB1D4E90121384690475A
:100AE000206A401C2062C01C206206E0206AFAE7EF
:100AF000D4E9012115F8010B9047761EF8D2204663
:100B0000AFF30080BDE8F0814E414E006E616E0093
:100B1000494E4600696E66002DE9F047814616464B
:100B20008AB0334878440DC88DE80D0030487844C9
:100B3000801C03AC0DC884E80D0041F69B300844CE
:100B4000372190FBF1F290FBF1F5A5F1800501FB57
:100B500012041B3C02D56442012000E00020DFF8B3
:100B600090A080460027FA44AAF1BE0A0DE0E007F3
:100B700009D03246684607EB47010AEB810100F0D5
:100B800037FB8DE8070064107F1C002CEFD1184F55
:100B90007F44AC3F18E0E80714D007EB04100DF1D8
:100BA000180A90E80E008AE80E00C068F04201D1F1
:100BB00098190890324606A903A800F019FB03AB68
:100BC00083E807006D10641C002DE4D132466946AD
:100BD000B8F1000F03A802D000F0F6FA01E000F02F
:100BE00007FBC9E90001C9F808200AB0BDE8F08791
:100BF000547D0000004870479C0200207546FFF7B6
:100C0000F9FFAE4605006946534620F007008546C9
:100C100018B020B5FFF7F4FABDE820404FF0000609
:100C20004FF000074FF000084FF0000B21F00701D4
:100C3000AC46ACE8C009ACE8C009ACE8C009ACE817
:100C4000C0098D46704710B50446AFF300802046BA
:100C5000BDE81040FFF7C0BA4FF0013C50F8042B3C
:100C600051F8043B9A4221D1A2EB0C03934313EABF
:100C7000CC1317D150F8042B51F8043B9A4215D1EC
:100C8000A2EB0C03934313EACC130BD150F8042BC3
:100C900051F8043B9A4209D1A2EB0C03934313EAA7
:100CA000CC13DBD04FF00000704700BFD01A01BA60
:100CB000B1FA81F101F0180122FA01F0CB40C1F143
:100CC0002001DBB2C0B2C01A2CFA01F3D11A914351
:100CD00011EAC311E6D1704701491820ABBEFEE707
:100CE0002600020070475FEA400C08BF91F0000F39
:100CF0004FEA8C234FEAC12243EA51514FEA1C507C
:100D000018BF00F5F0404FEA300018BF41F0004135
:100D10005FEA6C5C00F02980BCF1FF3F08BF40F047
:100D200080407047130C06BF12044FF0100C4FF0B8
:100D3000000C130E04BF12020CF1080C130F04BFB9
:100D400012010CF1040C930F04BF92000CF1020C81
:100D5000D30F04BF52000CF1010C11464FF00002FA
:100D6000A0F11F00A0EB0C00704711F0004F08BF6E
:100D7000704731F000413FF4D5AF0B0C06BF0904BA
:100D80004FF0100C4FF0000C0B0E04BF09020CF1D9
:100D9000080C0B0F04BF09010CF1040C8B0F04BFEE
:100DA00089000CF1020CCB0F04BF49000CF1010CBF
:100DB000CCF12003A0EB0C0022FA03F302FA0CF2B0
:100DC00041EA030100F10100704720F07F4C80EA06
:100DD000030023F07F47ACEB070303F57C5300F0DF
:100DE000004003F1FF032DE980494FEA154B09B498
:100DF0004FEA144325EA0B4E24EA03480FF2042677
:100E000006EB132749083E785FEA320203FB0667C8
:100E1000C7F5000707FB06F64FEA54374FEAD646F8
:100E200006F1020607FB066CCCF1005C4FEA1C479A
:100E30002CEA074C07FB06F40CFB06F504EB154601
:100E40004FEA961634BF00204FF000404FEAD137EA
:100E500006FB07FC4FEA1C4C0CFB0BF7D21B03FBF9
:100E60000CF761EB07010CFB0EF7B0EB074072EBE0
:100E700017420CFB08F734BFA2EB0742B2EB074264
:100E800061EB17414FEA0C444FEA910706FB07FC60
:100E90004FEA1C4C0CFB0BF7B0EBC74072EB573220
:100EA00003FB0CF734BFA2EBC742B2EBC74261EBC6
:100EB00057310CFB0EF7B0EBC70072EB57720CFB0F
:100EC00008F734BFA2EBC702B2EBC70261EB577160
:100ED000039F4FEA816141EA921104EBCC044FEA8F
:100EE000D1374FEA826206FB07FC42EA90124FEAD2
:100EF00080604FEA1C4C0CFB0BF7D21B03FB0CF77A
:100F000061EB07010CFB0EF7B0EB074072EB1742E9
:100F10000CFB08F734BFA2EB0742B2EB074261EBD0
:100F200017414FEA8C554FEA910704EB9C2406FBCE
:100F300007FC4FEA1C4C0CFB0BF7B0EBC74072EB05
:100F4000573203FB0CF734BFA2EBC742B2EBC742E8
:100F500061EB57310CFB0EF7B0EBC70072EB577229
:100F60000CFB08F734BFA2EBC702B2EBC70261EB80
:100F7000577115EB4C254FEA816141EA92114FEA16
:100F800082624FEAD13742EA901206FB07FC44F135
:100F900000044FEA80604FEA1C4C0CFB0BF7D21B9D
:100FA00003FB0CF761EB07010CFB0EF7B0EB0740FE
:100FB00072EB17420CFB08F734BFA2EB0742B2EB0F
:100FC000074261EB174115EB1C154FEA813141EAED
:100FD00092414FEA823242EA90424FEA80304FEA31
:100FE0000C7644F1000448EA03434EEA0B484FF004
:100FF000000EB2EB080C71EB030724BF62463946C2
:101000004EEB0E0E4FF0000B0018524149414BEBD6
:101010000B0BB2EB080C71EB03077BF1000B24BF49
:10102000624639464EEB0E0E4FF0000B001852414F
:1010300049414BEB0B0BB2EB080C71EB03077BF157
:10104000000B24BF624639464EEB0E0E51EA0207F2
:1010500018BF46F0010616EB0E7655F1000254F16A
:10106000000103D5BDE88901BDE80088BDE889011C
:10107000BDE80048B619524141EB0101A3F101035B
:10108000704780807F7E7D7C7B7A797877767675F5
:101090007473727171706F6E6E6D6C6C6B6A6A696D
:1010A0006868676666656464636362616160605F07
:1010B0005F5E5E5D5D5C5C5B5B5A5A595958585780
:1010C00057565655555554545353525252515150E8
:1010D00050504F4F4F4E4E4D4D4D4C4C4C4B4B4B3B
:1010E0004A4A4A4949494848484747474746464681
:1010F00045454544444444434343434242424241BC
:101100004141002B26D4770021D01CB54FEA370788
:1011100003B44FF010004FF010014FF000000FBC6F
:10112000BDE810400BF1010BBBF1010F08BF5FEAF6
:10113000170722BF12F1010211F101014FF0004126
:1011400043F1000300F0004043EA00007047F9D388
:101150005708DAE746EA064613F1400F4FEA16460B
:101160001FDD13F1200FDFBF16430A460021203395
:101170005B42C8D0C3F1200746EA064602FA07F7E9
:101180004FEA164646EA0706C3F1200722FA03F2A1
:1011900001FA07F721FA03F14FF0000342EA0702D0
:1011A000B1E746EA020646EA06464FEA164646EA2E
:1011B0000106BCBF46EA0646360C4FF000034FF06E
:1011C00000024FF000019EE72DE9C048934630B47D
:1011D00091E8380007C831EA400C48BF34EA430CB4
:1011E00003D5FFF7F2FDFFF78CFFF0BCBDE80088E8
:1011F0002DE9C048934630B491E8380007C810F094
:10120000804F08BF13F0804F03D100F005F8FFF7BF
:1012100078FFF0BCBDE8008820F07F4780EA03003B
:1012200023F07F4C07EB0C03A3F57C5300F0004048
:10123000A3F1FE0392F0000F00F0B38095F0000FD1
:1012400000F077802DE901494FEA11404FEA14463A
:1012500021EA004800FB06FC24EA064708FB06F6E4
:1012600007FB08F800FB07F718EB06484CEB164C99
:101270004FEA124B18EB07484FEA15464CEB174064
:1012800022EA0B4E0BFB06FC25EA06470EFB06F690
:1012900007FB0EFE0BFB07F71EEB064E4CEB164C46
:1012A0004FF000061EEB074E4CEB174B18EB0B08EC
:1012B00040F1000018EB0E0B58EB000840F1000065
:1012C0008F1A4FF000013CBFC943661B14BFB5EB3A
:1012D000040C00213CBFC943F61B4FEA17444EEAF9
:1012E0008E0E27EA04454FEA1C4704FB07622CEAEE
:1012F000074C05FB07F70CFB05F604FB0CFC16EB93
:10130000074642EB174216EB0C4642EB1C421BEB26
:10131000060658EB0202414146EA9E0601D5BDE8A9
:101320000189B619524141EB0101A3F10103BDE866
:1013300001894FEA14454FEA114724EA054621EA9C
:10134000074C05FB07F406FB07F70CFB06F105FB52
:101350000CFC11EB074144EB17444FEA124711EB29
:101360000C4144EB1C4422EA074C05FB07F206FB48
:1013700007F70CFB06F605FB0CFC16EB074642EBE9
:10138000174216EB0C4642EB1C456A1854F100015B
:1013900048BF7047B619524141EB0101A3F1010367
:1013A000704795F0000F37D04FEA11424FEA1447CB
:1013B00021EA024624EA074C02FB07F106FB07F785
:1013C0000CFB06F402FB0CFC14EB074441EB174149
:1013D0004FEA154714EB0C4441EB1C4125EA074C3E
:1013E00002FB07F506FB07F70CFB06F602FB0CFCFD
:1013F00016EB074645EB174516EB0C4645EB1C4232
:10140000121951F1000148BF7047B619524141EB22
:101410000101A3F1010370474FEA14454FEA114758
:1014200024EA054621EA074C05FB07F106FB07F70E
:101430000CFB06F24FF0000605FB0CFC12EB07421A
:1014400041EB174112EB0C4251EB1C4148BF704776
:10145000921841EB0101A3F101037047FEE77047C9
:1014600072B6FEE770B5044600F018F90546601C38
:1014700002D004480078044400F010F9401BA04258
:10148000FAD370BD080000202DE9F84FDFF8C891AD
:10149000002409F1040A0AF1040B23460F270BF17B
:1014A000040ED1E00125A54006EA0502AA4276D144
:1014B000DFF8A8C14E68A6EB0C0866452BD00DDC02
:1014C000032E34D005DC36B3012E19D0022E2FD1D5
:1014D0001BE0112E16D0122E2AD119E0B8F5881F64
:1014E00019D006DCB8F5803F15D0B8F5801F1FD1A4
:1014F00011E0B8F5001F0ED0B8F5041F18D10AE0AE
:10150000CB6815E0CB681B1D12E0CB6808330FE0F9
:10151000CB680C330CE08B682BB1012B4FF0080328
:1015200003D0456104E0042302E0056100E00023EC
:10153000FF2A01D8064601E000F104064FEA8405BF
:1015400001D9A5F12005D6F8008007FA05FC28EAA4
:101550000C0803FA05F548EA0508C6F800804D684E
:10156000ED0070D53E4DAE6946F00106AE61AD6945
:1015700024F0030605F0010500953A4D06EB050C35
:10158000DCF80850A607360F07FA06F825EA080522
:10159000DFF8D480404503D14FF0000825E052E049
:1015A000DFF8C880404502D14FF001081DE0DFF8A8
:1015B000C080404502D14FF0020816E0DFF8B48049
:1015C000404502D14FF003080FE0DFF8AC80404502
:1015D00002D14FF0040808E0DFF8A080404502D1B6
:1015E0004FF0050801E04FF0060808FA06F848EA4F
:1015F0000508CCF808804D68D9F80060ED034D4629
:1016000001D5164300E096432E604D68DAF800607D
:10161000AD03554601D5164300E096432E604D6854
:10162000DBF80060ED025D4601D5164300E096430D
:101630002E604D68DEF80060AD02754601D5164398
:1016400000E096432E60641C0A681646E2407FF470
:1016500029AFBDE8F88F0000000401400000111020
:10166000001002400000014000080140000C014051
:10167000001001400014014000180140001C01400E
:10168000C26821EA02030A4043EA0241016170474D
:101690000AB1016170470904FBE700000148806856
:1016A000704700000800002070B5040025D094F8B1
:1016B0003D00002520B984F83C50204600F078FA1F
:1016C000242084F83D002068016821F001010160B8
:1016D0002068016841F4004101602068016821F43C
:1016E0000041016000F0DEFB4D4A6168914201D883
:1016F0004C4900E04C49884201D2012070BD4B4961
:101700002368B0FBF1F15E6826F03F060E435E6091
:101710006368934206D94FF4967359434FF47A7332
:10172000B1FBF3F12368491C1E6A26F03F063143E2
:1017300019626168914210D84900401EB0FBF1F275
:10174000521CC2F30B02042A01D2042022E0B0FB97
:10175000F1F0401CC0F30B001CE0A268F2B301EBF7
:10176000C10303EB0116431EB3FBF6F35B1C43F40A
:1017700080431B0549D092B301EBC10202EB01117A
:10178000401EB0FBF1F0401CC0F30B0040F4804061
:1017900040F400402168CA694CF6FF739A43104335
:1017A000C861D4E9071001432068026822F0C00232
:1017B00011430160D4E9030101432068826848F2C3
:1017C000FF339A4311438160D4E90501084321683E
:1017D000CA6822F0FF021043C86001E00EE016E084
:1017E0002068016841F0010101602564202084F82F
:1017F0003D00256384F83E50002070BD01EB41069A
:10180000431EB3FBF6F35B1CB3E70120C2E701EB19
:101810004101401EB0FBF1F0401CC0F30B00B7E7E4
:10182000A086010080841E0000093D0040420F0098
:101830002DE9FF4F83B00025DDE910799A469346E4
:101840000446DDF848800095FFF728FF064694F827
:101850003D0020287CD1192301228549204600968D
:1018600001F0BEFA0028F5D194F83C0001286FD0B1
:10187000012084F83C0020680168C90703D1016891
:1018800041F0010101602068016821F400610160FC
:10189000222084F83D00402084F83E0025646762E1
:1018A000A4F82A90608D20857248E062CDE9008618
:1018B00053465A462046049901F09AF900287DD1F2
:1018C000208DDFF8B491202768B1012814D00228B8
:1018D000206801681ED041F4806101602068416980
:1018E00080690090B6E020684169816900910168D3
:1018F00041F400710160ADE02068016821F480616D
:10190000016072B62068416981690091016841F403
:1019100000710AE041F40061016072B6206841691B
:1019200081690091016821F48061016062B691E0F3
:10193000032868D801280CD0022843464FF0000243
:101940004946204600960FD001F04AFAB0BB10E09D
:101950008BE032464146204601F0C1FA70BB206858
:101960000069616A08706CE001F03AFA30BB72B647
:1019700034E02068016821F48061016072B620685B
:101980000069616A0870606A401C6062208D401EB8
:101990002085608D401E6085384846F2A811006899
:1019A000B0FBF1F0C0EBC00000EB80000090401EE7
:1019B000009008D020684069C04300E029E040075B
:1019C0000CD50098F3E744F8305F6773A57320697E
:1019D00040F02000206162B625731AE0206801689B
:1019E00041F40071016020680069616A0870606AF2
:1019F000401C6062218D491E2185618D491E6185D3
:101A000062B621681BE032464146204601F067FA83
:101A100018B1012007B0BDE8F08F20680069616A45
:101A20000870606A401C6062218D491E2185618DAD
:101A3000491E618521684A69D24352070AD409695F
:101A40000170606A401C6062208D401E2085608DA0
:101A5000401E6085208D00287FF46AAF84F83D70B9
:101A600084F83E5084F83C50D4E70220D2E70000CE
:101A7000020010000000FFFF04000100140000201D
:101A80002DE9FF4F83B09A46DDE91197934604464E
:101A9000DDF84080FFF702FE054694F83D0020285F
:101AA0007FD11923012240492046009501F098F981
:101AB000002876D194F83C00012872D0012084F8E7
:101AC0003C0020680168C90703D1016841F00101A9
:101AD00001602068016821F400610160212084F820
:101AE0003D00402084F83E0000262664C4F824808F
:101AF000A4F82A90608D20852C48E062CDE900751D
:101B000053465A462046049901F0F0F870B930E087
:101B10002A463946204601F015FA58B1206C0428AF
:101B200004D12068016841F400710160012007B010
:101B3000BDE8F08F606A216800780861606A401C27
:101B40006062218D491E89B22185628D521E628597
:101B500022685369DB435B070BD469B100781061DD
:101B6000606A401C6062208D401E2085608D401E92
:101B70006085208D0028CBD12A463946204601F0C9
:101B800009F90028CAD154F83D0B016841F40071ED
:101B90000160202004F81E09E67766770020C6E77A
:101BA000FFE70220C3E70000020010000000FFFF73
:101BB00030B585B0002100910191029103911E4D35
:101BC00003681E4C122103221D48AB4216D1A369A3
:101BD00043F00803A361A369039203F0080304938D
:101BE000C023CDE900316946FFF74EFCE06940F4BF
:101BF0000010E061E06900F4001019E0114DAB4203
:101C000017D1A36943F00803A361A369039203F00A
:101C1000080304934FF44063CDE900316946FFF7B0
:101C200033FCE06940F48000E061E06900F480008A
:101C3000049005B030BD0000005400400010024088
:101C4000000C0140005800400248816802781144AD
:101C50008160704708000020074810B5016841F016
:101C600010010160032000F075F80F2000F006F865
:101C700000F024F8002010BD0020024070B50D4D8A
:101C800004464FF47A712878B1FBF0F00A490968EC
:101C9000B1FBF0F000F0ECFA48B9102C07D20022AA
:101CA0002146501E00F036F800206C6070BD012007
:101CB00070BD000008000020140000200C4808B58A
:101CC000816941F001018161816901F001010091A7
:101CD000C16941F08051C161C06900F0805000903D
:101CE0000448416821F0E06141F00071416008BDA5
:101CF0000010024000000140002809DB00F01F0234
:101D0000012191404009800000F1E020C0F800115D
:101D100070470000F0B40E4B1B680C46C3F302235F
:101D2000C3F10705042D00D90425191D072901D287
:101D3000002300E0DB1E012606FA05F1491E2140C2
:101D400099409E40761E16403143F0BC01F020BE03
:101D50000CED00E0064900F0070208684FF6FF03AB
:101D6000184040EA0220034A104308607047000010
:101D70000CED00E00000FA052DE9F0470F460500E4
:101D800061D0434E306800F00700B84209D2306895
:101D900020F0070038433060306800F00700B84298
:101DA00051D128683B4C810712D5400703D56068A4
:101DB00040F4E06060602878000703D5606840F474
:101DC000605060606068A96820F0F00008436060BF
:101DD0002878C00728D06868012810D02168022818
:101DE00010D0890700292EDA616821F00301014330
:101DF0006160FFF753FC804641F288390DE02168AD
:101E00008903EFE78901EDE7FFF748FCA0EB080144
:101E1000494502D90320BDE8F0876068696800F091
:101E20000C00B0EB810FEFD1306800F00700B84232
:101E30000BD9306820F0070038433060306800F07C
:101E40000700B84201D00120E5E72878400705D512
:101E50006068E96820F4E060084360602878000763
:101E600006D56068296920F4605040EAC1006060CE
:101E700000F038F86168084AC1F30311515CC840AA
:101E80000649086006480068FFF7F8FE0020C2E730
:101E9000002002400010024092720008140000204E
:101EA0000C0000200448054900684968044AC1F351
:101EB0000221515CC840704714000020001002400D
:101EC000A27200080448054900684968044AC1F341
:101ED000C221515CC840704714000020001002402D
:101EE000A272000812A185B00FC98DE80F0014A0DE
:101EF000144A006804905168134801F00C03042B45
:101F000010D0082B0ED1C1F38343C9031DF8030081
:101F10000AD5516804AAC1F34041515C0A4A5043B2
:101F2000B0FBF1F005B0704708494843FAE70000FC
:101F300002030405060708090A0B0C0D0E0F10100A
:101F4000010200000010024000127A0000093D006A
:101F50002DE9F84F040070D02078C04DC00749D05B
:101F60006868C0F38100012807D06868C0F3810069
:101F7000022809D16868C00306D52868800339D5CE
:101F800060680028E7D035E06068B0F5803F0BD08E
:101F900010B1B0F5A02F11D0286820F4803028604F
:101FA000286820F4802002E0286840F4803028600F
:101FB000606890B1FFF772FB06460AE0286840F4BB
:101FC00080202860F0E700BFFFF768FB801B6428D3
:101FD00073D828688003F7D50CE0FFF75FFB06464F
:101FE00005E000BFFFF75AFB801B6428F0D8286883
:101FF0008003F7D420789A4E80074FF001094FF004
:10200000000839D5686810F00C0F07D06868C0F375
:102010008100022809D16868C00306D428688007B7
:1020200014D52069012808D110E02069B0B1C6F8A4
:102030000090FFF733FB074605E00AE1FFF72EFBB0
:10204000C01B0228C4D828688007F7D528686169B2
:1020500020F0F80040EAC10028600DE0C6F80080DA
:10206000FFF71CFB074604E0FFF718FBC01B022824
:1020700023D828688007F7D4207800072CD5794822
:10208000A169D9B1C0F80090FFF708FB074604E04A
:10209000FFF704FBC01B02280FD8686A8007F7D53A
:1020A00071484FF4FA510068B0FBF1F0009000BFA6
:1020B0000098411E0091FAD20EE080E0C0F8008046
:1020C000FFF7ECFA074604E0FFF7E8FAC01B022826
:1020D00075D8686A8007F7D42078400760D5E8692A
:1020E0000027C00008D4E86940F08050E861E86942
:1020F000012700F0805000905C480168C90513D4A6
:102100000168834641F480710160FFF7C7FA824697
:1021100006E000BFFFF7C2FAA0EB0A0064284ED821
:10212000DBF80000C005F5D5E06801280AD008B149
:10213000052813D0286A20F001002862286A20F0C0
:10214000040002E0286A40F001002862E06841F2E1
:10215000883B98B1FFF7A2FA82460BE0286A40F06C
:1021600004002862EEE700BFFFF798FAA0EB0A012F
:1021700059455AD8286A8007F6D50CE0FFF78EFA41
:10218000824605E0FFF78AFAA0EB0A0159454CD8D0
:10219000286A8007F6D41FB1E86920F08050E86112
:1021A000E06988B36968C1F38101022944D002283B
:1021B000C6F8608004D0FFF771FA044638E034E0D6
:1021C000FFF76CFA074604E0FFF768FAC01B022825
:1021D0002BD828688001F7D4206AB0F5803F05D15C
:1021E0006868A16820F4003008436860D4E90801F9
:1021F0000843696821F4741108436860C6F8609068
:10220000FFF74CFA044606E025E000BFFFF746FA68
:10221000001B022809D828688001F7D51BE000BF01
:10222000FFF73CFA001B022802D90320BDE8F88F13
:1022300028688001F4D40EE00128F7D06868226A8B
:1022400000F48031914204D1616A00F47010884238
:1022500001D00120EAE70020E8E70000001002407A
:1022600000004242800442421400002000700040FE
:1022700010B5401EB0F1807F01D3012010BD4FF09A
:10228000E02460610F21601701F082FB0020A06153
:1022900007202061002010BD7047704770B590F88E
:1022A0003C20012A2CD0012480F83C40022280F8F6
:1022B0003D2003685A689D6822F070060A68324320
:1022C0005A60104B02689A420ED00F4B9A420BD0C4
:1022D000B2F1804F08D00D4B9A4205D00C4B9A4278
:1022E00002D00C4B9A4204D1496825F0800319436F
:1022F000916080F83D40002180F83C10084670BD98
:10230000022070BD002C0140003401400004004058
:1023100000080040000C004010B5040003D094F801
:102320003D0010B107E0012010BD002084F83C0002
:10233000204600F01FF8022084F83D00211D20688F
:1023400001F044F9012084F8460084F83E0084F846
:102350003F0084F8400084F8410084F8420084F88B
:10236000430084F8440084F8450084F83D000020D0
:1023700010BD000008B500680B49884212D10B4817
:10238000C16941F00801C161C069002200F0080084
:10239000009001213220FFF7BDFCBDE8084032204B
:1023A000FFF7AABC08BD0000000C0040001002406E
:1023B00090F83D10012901D001207047022180F8DA
:1023C0003D100168CA6842F00102CA6000680E4907
:1023D00088420ED00D4988420BD0B0F1804F08D012
:1023E0000B49884205D00B49884202D00A498842ED
:1023F00004D1816801F00701062903D0016841F08A
:102400000101016000207047002C014000340140B0
:102410000004004000080040000C004070B5044675
:1024200090F83C00012817D0012584F83C50022088
:1024300084F83D002068826822F0770222F47F420F
:1024400082600868502830D00DDC20284DD005DC93
:1024500098B310283BD148E0022070BD302844D00A
:10246000402834D139E0602828D0702806D0B0F553
:10247000805F2CD0B0F5005F29D10AE0CB68D1E9AC
:102480000121206801F0F5F82068816841F07701AA
:1024900009E0CB68D1E90121206801F0EAF8206861
:1024A000816841F48041816011E0CA684968206810
:1024B00001F0B4F95021206807E016E0CA684968C5
:1024C000206801F0BCF96021206801F0DCF884F894
:1024D0003D50002084F83C0070BDCA6849682068FF
:1024E00001F09CF940212068EFE722680146104680
:1024F000EBE72DE9F0410D46040003D094F83D00D0
:1025000018B108E00120BDE8F081002084F83C000B
:10251000204600F041F8022084F83D0020688168E0
:1025200044F2070291438160211D206801F04EF8BA
:10253000226890689169166A2B68AF69034340F27C
:102540000330814341EA0721A868EF6908434FF649
:10255000FC418843E96840EA0720014328692F6A63
:10256000000140EA0730084369686D6926F02206D9
:1025700046EA0515294393602268906154F8460B9A
:102580000162012004F81F09E0752076E0762077CB
:10259000A0750020B7E7000000B585B000210091CC
:1025A000019102910391026818491948B2F1804FD4
:1025B00019D0184B9A4214D1CA6942F00202CA617A
:1025C000CA6902F0020204928A6942F004028A6136
:1025D000896901F004010491C02100916946FEF768
:1025E00053FF05B000BDCA6942F00102CA61CA6961
:1025F00002F0010204928A6942F004028A61896948
:1026000001F0040104910321E7E7000000100240FB
:10261000000801400004004070B590F83E60044698
:1026200090F83F5090F8423090F84320022021B1BA
:1026300004290ED0012E1BD114E0012E18D1012B3C
:1026400016D184F83E0084F842000122002120685F
:1026500020E0012D0CD1012A0AD184F83F0084F832
:10266000430014E0012D03D1012B01D1012A01D037
:10267000012070BD84F83E0084F83F0084F84200D9
:1026800084F8430001220021206800F0E5FF0122C8
:102690000421206800F0E0FF2068016841F001019A
:1026A0000160002070BD704770B504460068016984
:1026B0004FF00005C943890715D4C168C94389078C
:1026C00011D4E91E0161012020772068806980070C
:1026D000204602D0FFF7E7FF04E000F0BFF82046F5
:1026E00000F062F9257720680169C943490717D4CA
:1026F000C168C943490713D46FF004010161022086
:1027000020772068806910F4407F204602D0FFF7D0
:10271000CAFF04E000F0A2F8204600F045F9257752
:1027200020680169C943090716D4C168C94309076C
:1027300012D46FF008010161042020772068C0697D
:102740008007204602D0FFF7AEFF04E000F086F8D5
:10275000204600F029F9257720680169C943C90698
:1027600017D4C168C943C90613D46FF010010161C1
:10277000082020772068C06910F4407F204602D0EE
:10278000FFF791FF04E000F069F8204600F00CF933
:10279000257720680169C943C90708D1C168C943C1
:1027A000C90704D1891E0161204600F059F920684B
:1027B0000169C943090609D4C168C943090605D49A
:1027C0006FF0800101612046FFF766FD2068016916
:1027D000C943490609D4C168C943490605D46FF005
:1027E00040010161204600F081F920680169C94378
:1027F00089060BD4C168C943890607D46FF020014C
:1028000001612046BDE87040FFF747BD70BD000084
:1028100000B585B0002100910191029103910068FB
:102820000B49884212D10B48816941F0080181614E
:102830008069694600F0080004904FF440700090F1
:102840000220019003900448FEF71EFE05B000BD73
:102850000008004000100240000C0140704770B5B5
:10286000044690F83C000D4601280AD0012084F867
:102870003C0042B1042A18D0082A2AD00C2A4DD193
:1028800039E0022070BD206800F006FF20688169F1
:1028900041F0080181612068816921F004018161B2
:1028A000206881692A69114311E0206800F024FF43
:1028B0002068816941F4006181612068816921F4A7
:1028C00080618161206881692A6941EA0221816110
:1028D00024E0206800F046FF2068C16941F008014B
:1028E000C1612068C16921F00401C1612068C1692A
:1028F0002A69114311E0206800F068FF2068C1696F
:1029000041F40061C1612068C16921F48061C16145
:102910002068C1692A6941EA0221C161002084F866
:102920003C0070BD10B5040003D094F83D0010B118
:1029300007E0012010BD002084F83C00204600F094
:102940001FF8022084F83D00211D206800F03EFEA3
:10295000012084F8460084F83E0084F83F0084F8A3
:10296000400084F8410084F8420084F8430084F871
:10297000440084F8450084F83D00002010BD0000AC
:1029800008B500680649884208D10648C16941F087
:102990000401C161C06900F00400009008BD00009E
:1029A00000080040001002407047000010B50446C7
:1029B000022249B104290ED0082913D094F841000D
:1029C000012816D0012010BD94F83E000128F9D14D
:1029D00084F83E200FE094F83F000128F2D184F8FB
:1029E0003F2008E094F840000128EBD184F8402013
:1029F00001E084F841200122206800F02DFE1349F7
:102A00002068134A884201D0904203D1436C43F4BA
:102A100000434364206888420DD090420BD0B0F14F
:102A2000804F08D00B49884205D00B49884202D01C
:102A30000A49884204D1816801F00701062903D0C0
:102A4000016841F001010160002010BD002C01402F
:102A5000003401400004004000080040000C004029
:102A60002DE9F047044604211948FEF709FE1948EC
:102A700084422AD118480668706A04F015FA174C87
:102A8000002520607562164E4FF08F49B04203DD7D
:102A9000494604F0E9FA2060DFF8488020684146A2
:102AA00004F0ECF8206010480768786A04F0FCF93C
:102AB00060607D62B04203DD494604F0D5FA606093
:102AC0004146606804F0DAF86060BDE8F087000015
:102AD00000140140D801002048010020000000201F
:102AE00000D856470000204100010020704770B513
:102AF000040004D094F83D00002510B106E0012048
:102B000070BD84F83C50204600F022F8242084F860
:102B10003D002068C16821F40051C160204600F0EA
:102B2000A1FE2068016921F490410161206841699A
:102B300021F02A0141612068C16841F40051C1605F
:102B40002564202084F83D0084F83E00002070BDFC
:102B500030B585B000240094019402940394006879
:102B60001449884224D11448816941F4804181612B
:102B7000816901F480410491816941F0040181611E
:102B800080690E4D00F0040004904FF40070009036
:102B9000022001900320039069462846FEF774FC4A
:102BA0002815CDE90004694628460294FEF76CFC1E
:102BB00005B030BD0038014000100240000801405F
:102BC000FEE701684A69D24352050FD46FF4806270
:102BD0004A61002140F8301F20224273817302694C
:102BE00042F0040202610173012070470020704727
:102BF0002DE9F84F0446006889460B9D0168984608
:102C0000174641F4806101602068016841F48071D9
:102C1000016000954FF0011B0022594620460A9B97
:102C200000F0DEF84FF4007A40B120680068C0057B
:102C300001D5C4F840A00320BDE8F88F216809F051
:102C4000FE0008612B46284920460A9A00F0FCF84D
:102C5000F0BB20684169806900902A4620460A99A5
:102C600000F070F940B1206C04283AD12068016866
:102C700041F40071016034E0FEB2B8F1010F09D0F7
:102C80002168380A08612A4620460A9900F05AF954
:102C90000028E8D1206806612A4620460A9900F0FB
:102CA00051F90028DFD12068016841F4807101608A
:102CB00000950022594620460A9B00F091F8002812
:102CC000B3D1216809F0FF0040F00100086100E085
:102CD00007E02B46044920460A9A00F0B5F8002880
:102CE000AAD00120A8E70000020001002DE9F84366
:102CF000044600680D46DDE90897016898461646C7
:102D000041F4807101604B4600224FF001112046D2
:102D1000009700F065F848B120680068C00502D54A
:102D20004FF4007020640320BDE8F883216805F0AB
:102D3000FE0008613B464A461549204600F084F8EB
:102D400088B920684169806900903A464946204622
:102D500000F0F8F848B1206C042804D1206801681C
:102D600041F4007101600120DEE7F5B2B8F1010F16
:102D700009D02168300A08613A464946204600F0E9
:102D8000E1F80028E7D1206805610020CCE70000C9
:102D90000200010070B516460D4604460DE02046BF
:102DA000FFF70FFF08B1012070BD681C05D0FEF7CA
:102DB00075FC801BA84207D835B120684069C04324
:102DC0004007ECD4002070BD002044F8300F2021D3
:102DD0006173A073216941F0200121612073E2E752
:102DE0002DE9F0471E4690460D460446C1F30747BD
:102DF000DDF8209008E0701C06D0FEF74FFCA0EB39
:102E00000900B0420FD876B12068012F18D0806930
:102E100025EA00000004000C14D000214145EAD04E
:102E20000020BDE8F087002044F8300F20216173B6
:102E3000A073216941F02001216120730120F0E796
:102E40004069E5E70121E9E72DE9F0479A46914617
:102E50000E46044600254FF02008C1F3074725E041
:102E600020684069C043400514D42068016841F4DB
:102E70000071016021686FF480604861256384F807
:102E80003D8084F83E50206C40F00400206484F8BB
:102E90003C501FE0B9F1FF3F08D0FEF7FFFBA0EB6D
:102EA0000A0149450CD8B9F1000F09D02068012F5B
:102EB00013D0806926EA00000004000C0BD0CFE795
:102EC00044F8305F84F80D80A573206940F020003D
:102ED000206125730120BDE8F0874069EAE72DE90C
:102EE000F041002590460E460446202717E0406931
:102EF000C043C0060CD454F8301B6FF0100048617A
:102F000044F810596777A577206A2062257717E083
:102F1000FEF7C4FBA0EB0800B04208D83EB1206821
:102F20004169C9434906E2D40020BDE8F08144F874
:102F3000305F6773A573206940F02000206125731E
:102F40000120F2E770B516460D4604460DE0204616
:102F5000FFF737FE08B1012070BD681C05D0FEF7F1
:102F60009DFB801BA84207D835B120684069C0434B
:102F70000006ECD4002070BD002044F8300F202162
:102F80006173A073216941F0200121612073E2E7A0
:102F90003EB540F6FF74CDE900320A460146029480
:102FA00001230248FEF744FC00203EBDAC00002097
:102FB0003EB540F6FF74CDE900320A460146029460
:102FC00001230248FEF75CFD00203EBDAC0000205E
:102FD000F0B585B00024284800940194029403942D
:102FE000816941F010018161816901F01001049152
:102FF000816941F020018161816901F02001049122
:10300000816941F004018161816901F00401049149
:10301000816941F0080181618069184F00F0080062
:103020000490002204213846FEF732FB42F20200EF
:10303000CDE90004694612480294FEF725FA0420FF
:1030400001250226CDE90005CDE90246694638464C
:10305000FEF71AFA2802CDE90005CDE902466946D5
:103060000848FEF711FA4FF4704000906946064890
:10307000FEF70AFA05B0F0BD00100240001401404E
:103080000010014000080140000C01400D4810B53F
:103090000B4901600C49416000214FF4804281607E
:1030A000C0E9031241618161C1610162FEF7FCFA6E
:1030B000002803D0BDE81040FEF7D2B910BD0000D3
:1030C0000054004058000020A08601000D4810B5B3
:1030D0000B4901600C49416000214FF4804281603E
:1030E000C0E9031241618161C1610162FEF7DCFA4E
:1030F000002803D0BDE81040FEF7B2B910BD0000B3
:1031000000580040AC000020801A060010B58CB0BA
:1031100024216846FDF779F90024154809944FF0F9
:1031200080410A94C0E900144FF6FF71C0E90241E2
:10313000046184610320CDE900040120CDE902048B
:103140000494CDE905400794694609480894FFF7BF
:10315000D0F908B1FEF784F9099409A904480A9442
:10316000FFF79CF8002801D0FEF77AF90CB010BDEB
:103170000001002010B58CB024216846FDF745F908
:1031800000241648099414490A94C0E900144FF623
:10319000FF71C0E90241046184610320CDE90004AC
:1031A0000120CDE902040494CDE905400794694665
:1031B0000A480894FFF79DF908B1FEF751F9099400
:1031C00009A906480A94FFF769F8002801D0FEF71C
:1031D00047F90CB010BD0000000400404801002079
:1031E00010B58AB0002407941C2168460894FDF7A6
:1031F0000CF91A481849C0E9001441F61F41C0E90A
:10320000024104618461FFF78DFB08B1FEF728F9E4
:10321000079407A911480894FFF740F808B1FEF792
:103220001FF96020CDE900040294082269460B488A
:103230000494FFF714FB08B1FEF712F90C2269465B
:103240000648FFF70CFB08B1FEF70AF90348FFF741
:10325000DFFA0AB010BD0000000800409001002015
:1032600010B586B00024174800940194029403948A
:10327000049413490594016041F61F41C0E901140B
:103280006321C0E9031480218161FFF745F808B18B
:10329000FEF7E6F84FF48050009069460948FFF7C2
:1032A000BDF808B1FEF7DCF8049404A905480594BC
:1032B000FEF7F4FF002801D0FEF7D2F806B010BDEB
:1032C000000C0040D80100200C4810B50A490160EC
:1032D0004FF4E1314160002181600C22C160C0E9FE
:1032E00004128161C161FFF702FC002803D0BDE830
:1032F0001040FEF7B5B810BD003801402002002094
:10330000FEE700004FF4E152914200D91146012836
:1033100002D0022805D101E0034801E00248001F65
:1033200001606420FEF79EB84008004010B50C4CC8
:10333000012211032046FEF7ABF90022611420465A
:10334000FEF7A6F900224FF480412046FEF7A0F9CF
:1033500020460122BDE81040D103FEF799B90000D4
:10336000000C0140FEE70020AFF3008070B5064678
:103370005FF0000404F1B000C0B200F0D1FA002008
:1033800000F0CEFA102000F0CBFA0025304600F015
:10339000D9FA6D1CEDB2802DF8D3641CE4B2082C70
:1033A000E8D370BD10B56420FEF75CF8AE2000F0E5
:1033B000B7FA202000F0B4FA102000F0B1FAB020E3
:1033C00000F0AEFAC82000F0ABFA002000F0A8FA36
:1033D000102000F0A5FA402000F0A2FA812000F0B1
:1033E0009FFAFF2000F09CFAA12000F099FAA62095
:1033F00000F096FAA82000F093FA3F2000F090FA2F
:10340000A42000F08DFAD32000F08AFA002000F00A
:1034100087FAD52000F084FAF02000F081FAD92054
:1034200000F07EFA222000F07BFADA2000F078FA31
:10343000122000F075FADB2000F072FA202000F074
:103440006FFA8D2000F06CFA142000F069FABDE8E4
:103450001040AF2000F064BA10B50446B031C8B2D5
:1034600000F05EFA102040EA141000F059FA04F05F
:103470000F00BDE8104040F0010000F051BA00001C
:103480002DE9F047002591468A460446012B22D0BB
:10349000DFF8BC80022B24D155E02038C7B27E2C47
:1034A00004D90AF10100002400F0FF0A5146204629
:1034B000FFF7D2FF07EB4700002608EB4007B85D97
:1034C00000F040FA761CF6B2062EF8D3A41D6D1C4F
:1034D000E4B2EDB201E0DFF87C8019F805000028C5
:1034E000DBD1BDE8F0872038C7B2782C04D90AF1C7
:1034F0000100002400F0FF0A51462046FFF7ACFF10
:103500005FF0000606EB071118F8010000F01AFA48
:10351000761CF6B2082EF5D30AF10100C1B220469E
:10352000FFF79AFF5FF0000606EB071101EB0800BA
:10353000007A00F007FA761CF6B2082EF4D30834AD
:103540006D1CE4B2EDB219F805000028CBD1C8E734
:10355000D2740008AA72000870477047FEF774BB67
:1035600030B58FB028216846FCF74FFF14210AA818
:10357000FCF74BFF01210804CDE900100024029460
:1035800002250491CDE907504FF4E01009906846F8
:10359000FEF7DEFC08B172B6FEE70F20CDE90A05A2
:1035A0004FF48060CDE90C4002210AA80E94FEF78A
:1035B000E3FB002801D072B6FEE70FB030BD7047C4
:1035C0000148FFF771B80000D8010020F0B502688B
:1035D0001C4B1D4D1D4E1E4F1E4C4FF0804C9842F3
:1035E00009D0A04207D0604505D0A84203D0B04220
:1035F00001D0B84204D122F0700E4A6842EA0E02AD
:10360000984209D0A04207D0604505D0A84203D017
:10361000B04201D0B84203D122F44075CA682A43AF
:103620004D6922F080022A4302608A68C2620A68F9
:103630008262984201D0A04201D10969016301214F
:103640004161F0BD002C0140000400400008004032
:10365000000C00400034014010B501F01F030121AF
:10366000046A99408C430462016A9A4011430162E2
:1036700010BD10B5846842EA032224F47F440A4353
:103680002243826010BD826822F070020A4342F039
:103690000701816070470000F0B5026A22F0010264
:1036A0000262036A42688469124E24F073050C6852
:1036B0002C4323F002058B682B430D4DA84201D00B
:1036C000B04205D123F00807CB683B4323F0040345
:1036D000A84201D0B04205D14D6922F44072154391
:1036E0008A692A4342608461496841630362F0BD8C
:1036F000002C014000340140F0B5026A22F01002B3
:103700000262026A436884690D6824F4E64444EA6C
:1037100005248D6822F0200242EA05120F4D104E5A
:10372000A84201D0B04206D1CF6822F0800242EA1E
:10373000071222F04002A84201D0B04207D14D69E1
:1037400023F4406343EA85038D6943EA85034360BC
:103750008461496881630262F0BD0000002C014071
:1037600000340140F0B5026A22F480720262026AFB
:103770004368C46922F4007224F073050C68124E89
:103780002C438D6842EA05220E4DA84201D0B0427A
:1037900006D1CF6822F4006242EA072222F4806256
:1037A000A84201D0B04207D14D6923F4405343EA07
:1037B00005138D6943EA05134360C4614968C16319
:1037C0000262F0BD002C01400034014030B5026AB5
:1037D00022F480520262046A4268C3690D6823F4CD
:1037E000E64343EA05238D6824F4005444EA053493
:1037F000084DA84202D0084DA84204D14D6922F4D8
:10380000804242EA85124260C361496801640462F1
:1038100030BD0000002C01400034014010B5036AA7
:10382000046A24F001040462846924F0F00444EA88
:10383000021423F00A020A438461026210BD10B52B
:10384000036A23F0100303628369046A23F470435C
:1038500043EA023224F0A00343EA011182610162CB
:1038600010BD000070B5044600680169E26821F4EB
:103870004051114301612169A0680843616908430F
:103880002168CA6841F20C639A430243CA60206807
:103890004169A26921F44071114341611E492068C8
:1038A000884202D1FEF70EFB01E0FEF7FBFA00EBC7
:1038B000C00101EB0012606864218000B2FBF0F3EC
:1038C000B3FBF1F36FF018067343B2FBF0F5B2FBF4
:1038D000F0F605EB8305322303EB0515B5FBF1F597
:1038E000B6FBF1F605F0F00505EB0615B2FBF0F6B8
:1038F000B2FBF0F0B0FBF1F06FF01802504306EBB2
:10390000800003EB0010B0FBF1F0216800F00F0025
:103910002844886070BD000000380140FEE70000C8
:1039200001B584B00121642204A88DE807000B468C
:10393000002278210248FEF7A3F805B000BD000080
:103940005800002001B584B00121642204A88DE84C
:1039500007000B46402278210248FEF791F805B097
:1039600000BD000058000020490050EAC12018BFE7
:1039700004204A0D18BF40F0010040F2FF72B2EB84
:10398000515F08BF40F00200012808BF05207047C2
:103990000907090E002804DB00F1E02080F800147C
:1039A000704700F00F0000F1E02080F8141D704710
:1039B0002DE9F0414F1E00EBC7010446D1E900019B
:1039C00015461E4637F006020DD02A46334602F051
:1039D000E7FD7F1E04EBC703D3E9002302F0D8FB09
:1039E00037F00602F1D1022F25D0042F13D0062F75
:1039F00018BFBDE8F0812A46334602F0D1FDD4E974
:103A00000A2302F0C5FB2A46334602F0C9FDD4E979
:103A1000082302F0BDFB2A46334602F0C1FDD4E97B
:103A2000062302F0B5FB2A46334602F0B9FDD4E97D
:103A3000042302F0ADFB2A46334602F0B1FDD4E97F
:103A4000022302F0A5FB2A46334602F0A9FDD4E981
:103A50000023BDE8F04102F09BBB012203F0ADBBA7
:103A600002F096BB002213461046114602F040BCFD
:103A7000024A0020110703F0A0BB000001FDFFFF78
:103A800030380A2801D2012070470020704700001A
:103A90002DE9FE4F07460E460025684601F04EF818
:103AA00000246FF00F0AE8464FF0010957F8240090
:103AB00056F82410401A00D5404203F0DDF9514673
:103AC00003F0A9FB58F8241011F0FF4F0BD003F0BE
:103AD000D5F84FF07E5103F0C7FA0A4920F00040B4
:103AE000884205DC07E0084908440849884202D3B7
:103AF00009FA04F00543641C032CD7DB2846BDE813
:103B0000FE8F0000295C0F3E666666C19A99D90057
:103B10002DE9F04D8D4F21F0004A86B005460C4648
:103B2000BA452ADBAAEB070028430AD08848824519
:103B300001DC1AD1CDB106B02846BDE8F04DFFF743
:103B40008CBF844A844B284602F02AFD07460E4665
:103B5000824A834B2846214602F022FD06B03A46AF
:103B60003346BDE8F04D02F013BB0120FCF7F3FC37
:103B700006B0BDE8F04DFFF775BF7A48824542DADE
:103B8000BAF1795F0BDA2846FFF7EEFE042808BF8A
:103B9000FFF76EFF284606B02146BDE8F08D2A46A5
:103BA0000B46104602F0FCFC834602466E480E4669
:103BB0000B4606217844FFF7FBFE5A46334602F0D7
:103BC000EFFC804669488A465A46334604217844C9
:103BD000FFF7EEFE5A46334602F0E2FC00223B4677
:103BE00002F0D6FA02460B464046514602F080FBF0
:103BF0002A46234602F0D4FC06B02A462346BDE8F6
:103C0000F04D02F0C5BA284624F0004100223D469E
:103C10003B4602F0C3FD4FF0FF3203F0CEFA0646FA
:103C2000024653480F460B4606217844FFF7C0FE74
:103C300032463B4602F0B4FCCDE900014D48324625
:103C40003B4604217844FFF7B3FE32463B4602F080
:103C5000A7FC00222B4602F09BFA834602913046D5
:103C6000394602F08FF9804643480D46504517DC2F
:103C7000DDE900015A46029B02F03AFB42462B4620
:103C800002F08EFC42462B4602F082FA012203F03B
:103C900094FA304A304B02F073FE304A304B4CE01D
:103CA0004FF0000A52460B46404602F071FACDE949
:103CB000031052462B461046194602F071FC32465C
:103CC0003B4602F06BFDDDE9033202F011FB0646D4
:103CD0000F46DDE900015A46029B02F009FB8346CC
:103CE000009101223046394603F067FA194A1A4B0F
:103CF00002F054FD06460F4601224046294603F0D5
:103D00005CFA5A46009B02F04BFC32463B4602F0FE
:103D100037FE06460F4601225046294603F04DFA6B
:103D20000E4DDFF858802A46434602F037FD3246F2
:103D30003B4602F033FD2A46434602F02FFD002C9D
:103D4000D8BF81F0004106B0BDE8F08D0000F03F23
:103D50000000F07F075C143326A6913C182D4454D4
:103D6000FB21F93F0000E03F584B00006E4B000084
:103D7000E24A0000F84A00003333EF3FFB21E93FFD
:103D80002DE9F84F04460D4621F00040009173499B
:103D9000814211DC7249884201DC06D12CB12046F7
:103DA0002946BDE8F84FFFF758BE6E48002DCCBF3E
:103DB0006D496E49BDE8F88F6D49814211DD6D494D
:103DC0008142D8BF4FF0FF366DDD20462946FFF710
:103DD000CBFD042808BFFFF74BFE20462946BDE86F
:103DE000F88F6549654F25F00045814233DD644910
:103DF000814219DD002632464FF080432046294695
:103E000002F0C6F980468A4601222046294603F080
:103E1000D4F900223B4602F0B3FD4246534602F07D
:103E200067FA04460D463EE001260022BA463B46AC
:103E30002046294602F0ACF980460F460022534640
:103E40002046294602F09CFD42463B4602F050FACD
:103E500004460D4627E04B4981421BDDDFF828A1CF
:103E60000226002253462046294602F099FB0022F2
:103E70003B4602F08DF980460F460022534620460D
:103E8000294602F07DFD42463B4602F031FA0446E7
:103E90000D4608E0032622462B4600203B4902F04F
:103EA00027FA04460D4622462B461046194602F0D4
:103EB00077FB8B46824602460B4602F071FB0746B3
:103EC0000246334888460B4606217844FFF770FDCA
:103ED00052465B4602F064FB82462E488B463A46C9
:103EE000434605217844FFF763FD3A46434602F016
:103EF00057FB02460B46002E504659460CDA02F09C
:103F000047F922462B4602F04BFB01B022462B46D6
:103F1000BDE8F04F02F042BC02F03AF922462B46CF
:103F200002F03EFB1C4A7A4402EBC603D3E90023AD
:103F300002F026FD22462B4602F022FD174A7A4463
:103F400002EBC603D3E9002302F028FC009A002A02
:103F5000B8BF81F00041BDE8F88F000000001044B8
:103F60000000F07F182D4454FB21F93FFB21F9BFDD
:103F70000000DC3F0000203E0000F33F0000F03F67
:103F80000000E63F008003400000F83F0000F0BF63
:103F9000FA480000B8480000564800001E480000DB
:103FA0002DE9F04D9446CCF1000423F000464CEA94
:103FB0000404524F46EAD4749A46884621F00042DF
:103FC000BC4206D8454240EA050442EAD474BC42E9
:103FD00004D9BDE8F04D6246FFF742BDAAF1405555
:103FE000A5F17F6555EA0C040BD0022404EAAA74FB
:103FF000434DDFF810E144EAD87452EA000B04D0D4
:104000000CE0BDE8F04DFFF7BBBE002C14BF012C47
:10401000BDE8F08D022C30D0032C32D056EA0C0BC8
:104020000AD0BE4220D1BA4209D126F0804622F001
:1040300080423346114617E000291ADB25E0DFF8FD
:10404000C8B0FB44002C04BFDBE90001BDE8F08DE3
:10405000012C02BFDBE9000181F00041BDE8F08DD9
:10406000022C0AD0032C0CD0BA4212D1B8F1000FA6
:104070000BDA23482549BDE8F08D28462449BDE8E0
:10408000F08D28467146BDE8F08D1D482149BDE8F8
:10409000F08D921B12153C2AC4BF19481D490EDC35
:1040A000BAF1000FBEBF12F13C0F0020014606DB43
:1040B000624602F01DF921F00041FFF761FE002C7D
:1040C00008BFBDE8F08D012C04BF81F00041BDE8C0
:1040D000F08D114A114B022C07D002F051FC2A46F8
:1040E000BDE8F04D0A4B02F04BBC02F049FC2A46F9
:1040F000BDE8F04D064B02F051BB00000000F07F20
:10410000182D4454FB2109C0B2470000FB21F9BF20
:10411000FB210940FB21F93F075C143326A6A13C93
:1041200008B560B120208DF8000028208DF801002E
:1041300030208DF8020038208DF8030004E0A3221F
:1041400004216846FCF759F96A46042140F69E208E
:1041500001F0B4FD01F072FA08BD00003EB504465E
:1041600002208DF80000CA208DF80100E3208DF8B0
:10417000020009208DF803006A460421682001F03E
:104180009DFDA3208DF80000610609D5C0218DF8A2
:104190000110C8218DF80210C2218DF8031005E02E
:1041A0008DF801008DF802008DF8030014F4C07F33
:1041B00009D0C4218DF80410CC218DF80510C6213A
:1041C0008DF8061005E08DF804008DF805008DF8D7
:1041D00006008DF808008DF807008DF809006A4682
:1041E0000A2140F6A72001F069FDA0074FF0D8058D
:1041F00003D020208DF8000001E08DF800506A46C1
:10420000012140F6B62001F059FDA00601D501209C
:1042100000E0002000F08EF814F4C07F1ED0E0050E
:104220000AD5B2208DF800008B208DF80100B62051
:104230008DF802009B2009E0B0208DF8000080205E
:104240008DF80100B4208DF8020090208DF8030055
:104250006A46042140F6A22001F030FDE1074FF448
:104260000B6022D0F8218DF800106A46012101F080
:1042700025FDFA21072000F0ADFB072000F078FBB8
:10428000012000F095FB642000F038FC4FF4FA7038
:1042900000F044FCC821254800F032FB282000F043
:1042A00047FB0A2000F054FB05E08DF800506A46F9
:1042B000012101F003FDA00703D5D9208DF80000EE
:1042C00001E08DF800506A46012140F23D7001F096
:1042D000F5FC600701D5012000E0002000F048F85F
:1042E000E00601D5012000E00020FFF719FF104D86
:1042F00044F00800688101F0A1F90020A87360066D
:1043000001D50620A87314F4C07F02D0A87B801DBD
:10431000A87314F0140F02D0A87B1030A873A00764
:1043200002D0A87B001DA87300203EBD09E3CA028D
:10433000640200200EB54FF4976310B106A107C9BF
:1043400001E008A207CA8DE807006A46092118465D
:1043500001F0B4FC0EBD0000B8AAB38DB4980D35C1
:104360005D000000B8AAAAAAB088C3C5C7000000B3
:1043700008B560B1C0208DF80000C2208DF80100A2
:10438000C4208DF80200C6208DF8030004E08B22C3
:1043900004216846FCF731F86A46042140F698206B
:1043A00001F08CFC01F04AF908BD00003EB54FF465
:1043B0007A74CDE900320A4601460294012302488C
:1043C000FDF736FA3EBD0000AC00002038B50020F5
:1043D00000906B4601227521D120FFF7E7FF9DF881
:1043E000000068280CD0BFF34F8F26480168264A8A
:1043F00001F4E06111430160BFF34F8F00BFFDE79F
:1044000000F06CFF00283CD1782001F0FBFB40BBA2
:10441000782000F095FE20BB642001F0B3FB00BBC8
:1044200000F038F8E8B91948044600F0D1FD054617
:10443000E01C00F0CDFD45EAC005A01D00F0C8FD60
:1044400045EA801080B200F0D5F950B940F27310FF
:10445000FFF784FE28B9642000F034F908B901F0B0
:1044600027FD012001F0B4FA00280AD100240848F1
:1044700001F050FC1420FCF7F5FF641CA4B2322CB0
:10448000F5D338BD0CED00E00400FA054E00002025
:1044900090020020C8234FF48062024940F6F630B3
:1044A00000F0AEBF147B00082DE9FF4F89B017461E
:1044B000DDE9165200244C4E884681462C80A246E7
:1044C000B07B694601F048F84FF0FF3B18B1584601
:1044D0000DB0BDE8F08F708910F0140F3CD000993A
:1044E00009BA21F0FF039DF803100B433B600199CB
:1044F0001B1409BA21F0FF029DF807105B430A4321
:104500007A6002999DF80B4009BA21F0FF0121431E
:10451000B960039C091424BA24F0FF0C9DF80F40E5
:1045200012144CEA040CC7F80CC04FEA2C4749435C
:1045300002FB023207FB071111441024A1F1706144
:10454000B1F1007F04D901F079F8A5F800A0BEE729
:10455000298841F4807129804206694611D50A19DB
:10456000A41D13885BBAA8F8003053885BBAA8F87A
:104570000230928852BAA8F804202A8842F0080231
:104580002A8010F4C07F11D00A19A41D13885BBAC9
:10459000A9F8003053885BBAA9F80230928852BA61
:1045A000A9F804202A8842F070022A80800716D0D9
:1045B0000C44E07800F0C00500F03F016078C007CF
:1045C00006D0C80801F007013268491C02B19047C3
:1045D0006078000703D5716809B1A80988470C986D
:1045E00001F096FB002073E7640200202DE9FF41F3
:1045F000044603A800F0ECFDBDF80C00410CC30319
:104600002F48028902F00300550754F8200000D516
:104610004042C2F3C105960654F8255000D56D42BC
:10462000C2F38116D20554F8264000D56442A0FB9F
:104630000367C21702FB037200FB0120820042EAFB
:104640009670A5FB0367EA1702FB037205FB0122C4
:10465000950045EA9672A4FB0367E51705FB037313
:1046600004FB01318B0043EA9671030E8DF8003094
:10467000030C8DF80130030A8DF802308DF8030029
:10468000100E8DF80400100C8DF80500100A8DF83E
:104690000600080E8DF80800080C8DF80900080ABD
:1046A0008DF80A008DF807208DF80B106A460C2152
:1046B0004FF4257001F002FB04B0BDE8F08100006A
:1046C0006402002030B5044613A285B007CA8DE805
:1046D00007004FF0FF35C82C16D8C820B0FBF4F106
:1046E000491E080A8DF80C008DF80D1003AA02214E
:1046F00040F2162001F0E2FA30B96A460C2140F689
:10470000C12001F0DBFA10B1284605B030BD0548E4
:1047100084810020F9E70000FEF2ABC4AAF1DFDFDC
:10472000BBAFDFDF64020020F8B53049098901F032
:10473000030250F822404A0700D56442C1F3C10287
:104740008B0650F8222000D55242C1F3811350F855
:104750002330C80500D55B42254984FB0140850014
:1047600045EA947082FB0142A40F44EA820483FB71
:104770000121950F45EA8105010E8DF80010010C0D
:104780008DF80110010A8DF802108DF803006A46B9
:1047900004214FF4747001F091FA4FF0FF3688B99C
:1047A000200E8DF80000200C8DF80100200A8DF8F5
:1047B00002008DF803406A4604214FF4757001F041
:1047C0007DFA08B13046F8BD280E8DF80000280C9F
:1047D0008DF80100280A8DF802008DF803506A4612
:1047E00004214FF4767001F069FAF8BD64020020EC
:1047F00009E3CA022DE9FF4104463CA004F003038B
:10480000006802903AA0006803903AA006683AA0B7
:10481000056802A8C15C8DF80010C4F3C101425CB8
:104820008DF80120C4F38112805C8DF8020003A88A
:10483000C35C8DF80430415C8DF80510805C8DF808
:1048400006006A46032140F2264001F037FA4FF095
:10485000FF37E0BB01AA032140F22A4001F02EFA03
:10486000A8BBCDE9006560070BD59DF8000040F0BE
:1048700001008DF800009DF8040040F001008DF863
:104880000400A0060BD59DF8010040F001008DF852
:1048900001009DF8050040F001008DF80500E005DD
:1048A0000BD59DF8020040F001008DF802009DF844
:1048B000060040F001008DF806006A4603214FF41F
:1048C000886001F0FBF910B901AA032100E004E0BF
:1048D00040F2314001F0F2F918B1384604B0BDE8B9
:1048E000F081064804810020F8E700004CCD6C0000
:1048F0000CC92C003656760026466600640200205D
:104900004FF47A7290FBF2F008B54843010E8DF82F
:104910000010010C8DF80110010A8DF802108DF8BD
:1049200003006A4604214FF4AE7001F0C7F908BDD8
:104930000521B0FBF1F008B5010A8DF800108DF8E3
:1049400001006A4602214FF4AD7001F0B7F908BDCD
:104950000521B0FBF1F008B5010A8DF800108DF8C3
:1049600001006A4602214FF4AC7001F0A7F908BDBE
:1049700008B500218DF80010C10702D030218DF854
:104980000010810705D59DF8001041F00C018DF84D
:104990000010400705D59DF8000040F003008DF899
:1049A00000006A4601214FF4A47001F087F908BDA8
:1049B00008B560B1042800D90420401E8DF800001D
:1049C0006A46012140F24F1001F078F908BD01203C
:1049D000F3E700002DE9FC41054640074FF0FF36A4
:1049E0007CD0B1F5C86F79D8084602F05DFA3E492F
:1049F00002F044F9074601A800F0CCFB9DF8040042
:104A0000022806D004280DD008282ED0102865D101
:104A100034E00E21384602F0FEFB02F00DFA84B2BB
:104A2000324907E00D21384602F0F5FB02F004FAA6
:104A30002F4984B2384602F04BFA02F0FDF9210A00
:104A40008DF8001080B28DF80140010A8DF8021037
:104A50008DF80300E8076C4620D0224602214FF46F
:104A6000EA7001F02BF9C8BB11E00C21384602F0C6
:104A7000D2FB02F0E1F984B21E49DBE70B21384694
:104A800002F0C9FB02F0D8F984B21B49D2E7A21C9C
:104A900002214FF4927001F011F9F8B9A8070DD571
:104AA0006A4602214FF4EC7001F008F9B0B9A21C7B
:104AB00002214FF4947001F001F978B9680710D51C
:104AC0006A4602214FF4EE7001F0F8F830B9A21CEA
:104AD00002214FF4967001F0F1F810B13046BDE8B4
:104AE000FC810020FBE70000000048430000404636
:104AF0000000C045000040450000C0440521B0FB57
:104B0000F1F008B5010A8DF800108DF801006A4631
:104B100002214FF4EF7001F0D1F808BD0521B0FB80
:104B2000F1F008B5010A8DF800108DF801006A4611
:104B300002214FF4ED7001F0C1F808BD2DE9FE43EC
:104B40000646264801AB042240680D210078FEF796
:104B50001FFA10B10720BDE8FE839DF804101C2049
:104B600000EAD1029DF80710DFF87490C1F3011339
:104B70001A438DF800209DF80520C1F3810300EA57
:104B8000D2021A438DF801209DF8062001F003019E
:104B900000EAD20008430024124F8DF80200A0461C
:104BA0006D46285D10B146F824900AE046F824804E
:104BB0000DE000BF56F82400394602F089F946F8A6
:104BC0002400285D401E10F0FF002855F2D1641C1F
:104BD000E4B2032CE5D30020BDE70000180000205C
:104BE0007B14AE3E1D5A843F2DE9FE4F0546012041
:104BF000C14E8DF800004FF000088DF8018030683C
:104C00000C461746417D70686B4602220078FEF71D
:104C1000CFF94FF0FF3A00287AD1C820FCF722FCE8
:104C20008DF8008030686B460122417C7068007806
:104C3000FEF7BEF90028EFD130686B4601224179BA
:104C400070680078FEF7B4F90028E5D130686B464B
:104C50000122417D70680078FEF7AAF90028DBD1B7
:104C600030686B460122817E70680078FEF7A0F9FB
:104C70000028D1D130686B46012201797068007834
:104C8000FEF796F90028C7D14FF00C098DF8009077
:104C900030686B460122017970680078FEF788F968
:104CA000002835D10F20FCF7DDFBB06A6B460122EE
:104CB000407A8DF800003068817870680078FEF7DF
:104CC00077F9002824D1B06A6B460122007A8DF86A
:104CD00000003068417870680078FEF769F90028B4
:104CE00073D1B06A807A0FB140F0E0008DF8000017
:104CF00030686B460122817970680078FEF758F9B8
:104D0000002862D12FB1B06AC07A40F0E00001E023
:104D10004AE018208DF8000030686B460122C17906
:104D200070680078FEF744F9F0BB17B1C820FCF7B3
:104D300099FB40208DF8000030686B460122017914
:104D400070680078FEF734F970BB78208DF80000A9
:104D500030686B460122417970680078FEF728F9C7
:104D600010BB3220FCF77EFB8DF800803068474690
:104D70006B464179706801220078FEF719F998B9FD
:104D800031687068B046097B00786B460222FEF7F6
:104D9000FFF848B9BDF80000AF6040BAB0FBF9F0C9
:104DA0006F60C6B22F6000E00FE0A7606760276009
:104DB000002739E0D8F80010D8F804006B46497B8A
:104DC00000780C22FEF7E4F810B15046BDE8FE8FE3
:104DD000BDF80000236840BA02B2BDF80200BDF879
:104DE00004101A44226040BA626800B21044606045
:104DF00049BAA06809B20844A060BDF806002B6853
:104E000040BA02B2BDF808001A4440BA01B2BDF877
:104E10000A002A606A6840BA11446960A96800B251
:104E200008447F1CFFB2A860B742C3D3286883221E
:104E3000C117090441EA104100040023FBF7F2F90D
:104E400032460023FBF7EEF9286068688322C11719
:104E5000090441EA104100040023FBF7E3F932465C
:104E60000023FBF7DFF96860A8688322C1170904F3
:104E700041EA104100040023FBF7D4F93246002335
:104E8000FBF7D0F9A86020684FF40065C11709044A
:104E900041EA104100042A460023FBF7C3F93246D9
:104EA0000023FBF7BFF9206060682A46C117090498
:104EB00041EA104100040023FBF7B4F93246002315
:104EC000FBF7B0F96060A0682A46C117090441EAFF
:104ED000104100040023FBF7A5F932460023FBF73D
:104EE000A1F9A060002802DDA0F5803001E000F506
:104EF0008030A060002069E7180000202DE9F84FFD
:104F000081462E488846002540686B46032200787B
:104F10000D21FEF73DF810B10720BDE8F88F9DF890
:104F20000000002400F01F008DF800009DF8010033
:104F30006FF00F0B00F01F008DF801009DF80200CC
:104F40006E4600F01F008DF802004FF0010A00BF0E
:104F500059F8241058F82400081A00D5404201F0EE
:104F60008BFF594602F057F90746305DC0B114482F
:104F700002E0144901F0ACFF315D491E11F0FF0160
:104F80003155F6D10146384601F078FE4FF07E519A
:104F900002F06AF80C4920F00040884205DC07E086
:104FA0000A483844B0F1D97F02D90AFA04F005431F
:104FB000641C032CCCDB2846AFE70000180000205F
:104FC0000000C84154E3853F295C0F3E0000E0BE6D
:104FD00090F90010002902DD4FF00000704702DA5E
:104FE0004FF00400704790F90110002902DD4FF0E6
:104FF0000100704702DA4FF00500704790F9020097
:10500000002802DD4FF00200704702DA4FF0060080
:1050100070474FF00700704786B0FCF71DFEFEF7A3
:105020009FFAFDF7D5FFFEF731F8FEF74FF8FEF7D0
:105030006DF8FEF79FF8FEF7D3F8FEF745F9FEF797
:105040000FF93048FDF7B4F9FEF7ACF9FEF78BF92C
:1050500000F0BEFF0028FBD1FFF7B8F900212A4875
:10506000FDF7DAFA04212848FDF7D6FA002127488F
:10507000FDF7D2FA04212548FDF7CEFA082124488D
:10508000FDF794FC0C212248FDF790FC00224FF420
:1050900080712048FCF7FCFA01231FA2052118208B
:1050A000FEF7EEF9FEF742F941F270710120FEF7CA
:1050B00029F94FF461610220FEF724F9C820FCF7BA
:1050C000D1F9174C606801F045FD02460B4615A169
:1050D0006846FBF7CBF801236A4619461820FEF70D
:1050E000CFF9206801F036FD02460B4611A1684653
:1050F000FBF7BCF801236A4602211820FEF7C0F92D
:10510000E0E70000D8010020000100204801002055
:10511000900100200008014068656C6C6F00000081
:105120000000002072696768743D3D20252E3366BB
:10513000000000006C6566743D3D20252E3366003E
:105140002DE9F041124C20F00101002594F82400D3
:1051500010B10020BDE8F081A07A4FF0FF3668B1B1
:105160000840277C2074884200D0354641B1012098
:1051700000F0DCFE00F062FA38B127743046E9E74F
:10518000207D00B1012000F0D1FE2846E2E70000BA
:10519000180000200D494A7A42B1012A08D0022A9B
:1051A0000FD0032A0FD04FF0FF307047022200E0EB
:1051B00004220270C97C11B11106C90D01700020D2
:1051C00070470822F5E71022F3E7000018000020DE
:1051D0000F494A7A42B1012A09D0022A11D0032A82
:1051E00012D04FF0FF3070474FF4804201E041F69B
:1051F0009C720280C97C11B1C2F34E010180002073
:1052000070474FF48052F4E74FF40062F1E700007A
:10521000180000200B49097A39B1012907D0022969
:105220000AD003290BD0002103E0FA2101E04FF45A
:10523000FA710180002070474FF47A71F9E74FF45A
:10524000FA61F6E7180000200A49097A41B10129FC
:1052500008D002290AD003290AD04FF0FF30704746
:10526000054900E005490160002070470449FAE75C
:105270000449F8E7180000200000034300008342BF
:1052800033330342333383410C49C97A072913D29C
:10529000DFE801F01204060A0C0E1000BC2100E049
:1052A00062210180002070472A21FAE71421F8E7E3
:1052B0000A21F6E70521F4E70021F2E718000020B3
:1052C000054991F8242012B14FF0FF307047C98989
:1052D0000180002070470000180000202DE9FC41EB
:1052E000464C80208DF8000020686B460122417DED
:1052F00060680078FDF75CFE4FF0FF37002875D13D
:105300006420FCF7AFF800258DF8005020686B464C
:105310000122417D60680078FDF74AFE002865D1D2
:1053200020686B460622417E60680078FDF730FEFB
:1053300000285BD19DF805009DF80310C007400FC1
:1053400001F0010140EA41009DF801104FF0010613
:1053500001F00101084304D0012831D0022810D007
:1053600044E020686B460122C17860680078FDF750
:105370000FFED8BB9DF8000010F00F0036D00428B7
:105380001ED0E574FF2004F80A0F4FF6FF7104F8F1
:10539000020C04F8010C6070A180A0712072A6704C
:1053A00026766576E572A572E56025616561A5766C
:1053B000E576A5834FF4FA6000F046FBB0B901E052
:1053C000E674DFE7022000F061FA78B92A2000F0E5
:1053D000A3FB58B9322000F0D5FB38B90020FFF705
:1053E000AFFE18B9002000F085FA10B13846BDE8CC
:1053F000FC81002000F006FC0020F8E718000020E7
:105400002DE9FF4FDFF89480064685B098F8250017
:1054100015460F464FF0FF39B0BBAFB3002420E074
:10542000301B102800DD102080B283463A19014657
:105430009246204600F042FC30BB6A465946204660
:1054400000F0D2F800BB50465A466946FAF7A9FF69
:1054500020B16FF0010009B0BDE8F08F04EB0B0044
:1054600084B2B442DCD3280A8DF810008DF81150B4
:10547000D8F80000444604AB417FD8F8040002226B
:105480000078FDF795FD08B14846E4E7012084F86F
:1054900025000898E0840020DDE7000018000020C7
:1054A0002DE9F84305464FF0FF39282844D807274F
:1054B000284C00267DB1012000F0FCFA20208DF858
:1054C00000004FF00108012D17D0052D18D88DF8D8
:1054D000018005201FE0002000F0ECFA8DF800604C
:1054E0008DF8017020686B460222417D606800786B
:1054F000FDF75EFD00BB267529E08DF80160E8E749
:10550000142D04D802208DF801000A2003E00320A6
:105510008DF80100142000F0FFFA9DF801006B46A1
:1055200007EB80108DF8010020680222417D606841
:105530000078FDF73DFD10B14846BDE8F88308202E
:10554000A072267384F814800020FFF7F9FD002074
:10555000F3E70000180000202DE9F843214C06462F
:10556000174694F8240089464FF0FF3890B3A07A8C
:1055700080B320686B460222017B60680078FDF7EB
:1055800007FD38BBBDF8000045BAB54202D2002085
:1055900038701FE060684188B5EB510F11D9216860
:1055A00000786B46C97C0122FDF7F2FC90B99DF8AA
:1055B0000000C00605D500F041F86FF00100BDE81D
:1055C000F8832068F2B24B46417B60680078FDF7B3
:1055D000DFFC08B14046F2E7B5FBF6F0401E38703C
:1055E0000020ECE718000020F8B516000D464FF03B
:1055F000FF371FD0104CA17AE1B1010A8DF80010DD
:10560000C0B28DF80100411960684289914211D8F9
:10561000216800786B46C97E0222FDF7C9FC48B9B3
:105620002068EAB23346017E60680078FDF7B0FC7E
:10563000002800D03846F8BD18000020F8B5564CB8
:105640004FF0FF36A07A00287DD000258DF800505D
:1056500020686B460122417C60680078FDF7A8FC59
:10566000002870D120686B4601224179606800787B
:10567000FDF79EFC002866D120686B460122017967
:1056800060680078FDF794FC00285CD194F8240051
:10569000E0B30C208DF8000020686B4601220179F0
:1056A00060680078FDF784FC002872D13220FBF797
:1056B000D9FEC0208DF80000A07AC00702D0E020FB
:1056C0008DF8000020686B4601220179606800783F
:1056D000FDF76EFC00285CD1607C18B102208DF8CB
:1056E000000001E08DF8005020686B460122417CEB
:1056F00060680078FDF75CFC28BB8DF800502068DE
:105700006B4601224179606800783EE0FFE70420A3
:105710008DF8000020686B460122017960680078EE
:10572000FDF746FC78B9A07C90B9A07AC0070FD0ED
:105730005FF060008DF8000020686B46012201795F
:105740006068007800E024E0FDF732FC08BB01E06F
:105750004020EFE73220FBF785FE607C18B1012086
:105760008DF8000001E08DF8005020686B460122A2
:10577000417C60680078FDF71BFC50B92068064B3F
:1057800001224179606810330078FDF711FC002890
:1057900000D03046F8BD0000180000202DE9F04789
:1057A000394C82468AB094F824000F4620B100207C
:1057B00000F00EF9012600E0002607A8FFF72AFDF9
:1057C00006A8FFF7E7FC09A8FFF75EFD08A8FFF7AA
:1057D00077FD94F80A9094F810800025002239464D
:1057E0005046FFF701FA10B16D1C022DF6DB022DB9
:1057F0001AD00025012203A96846FFF7F5F910B178
:105800006D1C022DF6DB022D0ED003A93846FEF7E3
:105810003FF9C7B269465046FFF770FB10F0FF0F23
:105820004FF0000502D002E0002503E001250FB98A
:1058300045F00205FF2020726072E0724FF6FF71A2
:10584000E181A072207401202073BDF81C0000F0DB
:10585000FBF89DF8180000F019F8BDF8240000F0DE
:105860005BF9BDF8200000F08DF9484600F0CAF958
:105870004046FFF765FC16B1012000F0A9F80AB018
:105880002846BDE8F08700001800002038B5184C05
:105890004FF0FF35A17A19B3022806D0042806D0AC
:1058A00008280ED010281BD10DE0002000E00820B1
:1058B0008DF80000607A9DF80010B0EBD10F04D095
:1058C00005E01020F4E71820F2E7002038BD20683A
:1058D0006B460122C17960680078FDF769FB08B169
:1058E000284638BD9DF80000C0086072EDE7000052
:1058F00018000020F8B5354C0546A07CA84201D11F
:105900000020F8BD31484FF0FF366B46D0E900105B
:105910004FF001020979007835B3FDF739FB70BB10
:105920009DF800006B4620F020008DF800002068F4
:105930000122017960680078FDF73AFBF8B903208D
:10594000FBF790FD02208DF8000094F8220078B358
:1059500082202BE020686B460122C17D60680078C0
:10596000FDF726FB58B92EE0FDF712FB38B9A07AF7
:10597000C0079DF8000003D040F0200002E00CE0DA
:1059800020F020008DF8000020686B46012201798C
:1059900060680078FDF70CFB08B13046F8BD0320C5
:1059A000FBF760FD94F8220000B180208DF8000024
:1059B00094F823000028CDD09DF8000040F030007E
:1059C0008DF80000C6E7A5749AE7000018000020D3
:1059D00038B51C4C94F8241081421DD0002500B32A
:1059E00094F82500D0B1002000F0A0FA0020FFF7C5
:1059F00081FFE08C00F0C6F88DF8005060686B46BF
:105A0000012200782321FDF7D3FA012084F8240035
:105A100000F08CFAFFF712FE002038BD4FF0FF3087
:105A200038BD002000F082FA207C8DF8000060680C
:105A30006B46012200782321FDF7BAFA84F824503E
:105A4000E8E700001800002038B5194C4FF0FF358A
:105A5000A17A31B3FA2809D0B0F5FA7F08D0B0F5B1
:105A60007A7F0FD0B0F5FA6F1BD10DE0002000E077
:105A700008208DF80000207A9DF80010B0EBD10FBF
:105A800004D005E01020F4E71820F2E7002038BD2C
:105A900020686B460122817960680078FDF788FAFA
:105AA00008B1284638BD9DF80000C0082072EDE717
:105AB0001800002038B5174C054694F82300A8427A
:105AC00001D1002038BD0DB1302000E000208DF85C
:105AD0000000A07C28B19DF8000040F002008DF885
